{
	"contracts/array.sol": {
		"ArraysExercise": {
			"abi": [
				{
					"inputs": [],
					"name": "afterY2K",
					"outputs": [
						{
							"internalType": "uint256[]",
							"name": "",
							"type": "uint256[]"
						},
						{
							"internalType": "address[]",
							"name": "",
							"type": "address[]"
						}
					],
					"stateMutability": "view",
					"type": "function"
				},
				{
					"inputs": [
						{
							"internalType": "uint256[]",
							"name": "_toAppend",
							"type": "uint256[]"
						}
					],
					"name": "appendToNumbers",
					"outputs": [],
					"stateMutability": "nonpayable",
					"type": "function"
				},
				{
					"inputs": [],
					"name": "getNumbers",
					"outputs": [
						{
							"internalType": "uint256[]",
							"name": "",
							"type": "uint256[]"
						}
					],
					"stateMutability": "view",
					"type": "function"
				},
				{
					"inputs": [],
					"name": "resetNumbers",
					"outputs": [],
					"stateMutability": "nonpayable",
					"type": "function"
				},
				{
					"inputs": [],
					"name": "resetSenders",
					"outputs": [],
					"stateMutability": "nonpayable",
					"type": "function"
				},
				{
					"inputs": [],
					"name": "resetTimestamps",
					"outputs": [],
					"stateMutability": "nonpayable",
					"type": "function"
				},
				{
					"inputs": [
						{
							"internalType": "uint256",
							"name": "_unixTimestamp",
							"type": "uint256"
						}
					],
					"name": "saveTimestamp",
					"outputs": [],
					"stateMutability": "nonpayable",
					"type": "function"
				}
			],
			"devdoc": {
				"kind": "dev",
				"methods": {},
				"version": 1
			},
			"evm": {
				"assembly": "    /* \"contracts/array.sol\":59:1799  contract ArraysExercise {... */\n  mstore(0x40, 0x80)\n    /* \"contracts/array.sol\":89:137  uint[] numbers = [1, 2, 3, 4, 5, 6, 7, 8, 9, 10] */\n  mload(0x40)\n  dup1\n  0x0140\n  add\n  0x40\n  mstore\n  dup1\n    /* \"contracts/array.sol\":107:108  1 */\n  0x01\n    /* \"contracts/array.sol\":89:137  uint[] numbers = [1, 2, 3, 4, 5, 6, 7, 8, 9, 10] */\n  0xff\n  and\n  dup2\n  mstore\n  0x20\n  add\n    /* \"contracts/array.sol\":110:111  2 */\n  0x02\n    /* \"contracts/array.sol\":89:137  uint[] numbers = [1, 2, 3, 4, 5, 6, 7, 8, 9, 10] */\n  0xff\n  and\n  dup2\n  mstore\n  0x20\n  add\n    /* \"contracts/array.sol\":113:114  3 */\n  0x03\n    /* \"contracts/array.sol\":89:137  uint[] numbers = [1, 2, 3, 4, 5, 6, 7, 8, 9, 10] */\n  0xff\n  and\n  dup2\n  mstore\n  0x20\n  add\n    /* \"contracts/array.sol\":116:117  4 */\n  0x04\n    /* \"contracts/array.sol\":89:137  uint[] numbers = [1, 2, 3, 4, 5, 6, 7, 8, 9, 10] */\n  0xff\n  and\n  dup2\n  mstore\n  0x20\n  add\n    /* \"contracts/array.sol\":119:120  5 */\n  0x05\n    /* \"contracts/array.sol\":89:137  uint[] numbers = [1, 2, 3, 4, 5, 6, 7, 8, 9, 10] */\n  0xff\n  and\n  dup2\n  mstore\n  0x20\n  add\n    /* \"contracts/array.sol\":122:123  6 */\n  0x06\n    /* \"contracts/array.sol\":89:137  uint[] numbers = [1, 2, 3, 4, 5, 6, 7, 8, 9, 10] */\n  0xff\n  and\n  dup2\n  mstore\n  0x20\n  add\n    /* \"contracts/array.sol\":125:126  7 */\n  0x07\n    /* \"contracts/array.sol\":89:137  uint[] numbers = [1, 2, 3, 4, 5, 6, 7, 8, 9, 10] */\n  0xff\n  and\n  dup2\n  mstore\n  0x20\n  add\n    /* \"contracts/array.sol\":128:129  8 */\n  0x08\n    /* \"contracts/array.sol\":89:137  uint[] numbers = [1, 2, 3, 4, 5, 6, 7, 8, 9, 10] */\n  0xff\n  and\n  dup2\n  mstore\n  0x20\n  add\n    /* \"contracts/array.sol\":131:132  9 */\n  0x09\n    /* \"contracts/array.sol\":89:137  uint[] numbers = [1, 2, 3, 4, 5, 6, 7, 8, 9, 10] */\n  0xff\n  and\n  dup2\n  mstore\n  0x20\n  add\n    /* \"contracts/array.sol\":134:136  10 */\n  0x0a\n    /* \"contracts/array.sol\":89:137  uint[] numbers = [1, 2, 3, 4, 5, 6, 7, 8, 9, 10] */\n  0xff\n  and\n  dup2\n  mstore\n  pop\n  0x00\n  swap1\n  0x0a\n  tag_1\n  swap3\n  swap2\n  swap1\n  tag_2\n  jump\t// in\ntag_1:\n  pop\n    /* \"contracts/array.sol\":59:1799  contract ArraysExercise {... */\n  callvalue\n  dup1\n  iszero\n  tag_3\n  jumpi\n  0x00\n  dup1\n  revert\ntag_3:\n  pop\n  jump(tag_4)\ntag_2:\n  dup3\n  dup1\n  sload\n  dup3\n  dup3\n  sstore\n  swap1\n  0x00\n  mstore\n  keccak256(0x00, 0x20)\n  swap1\n  dup2\n  add\n  swap3\n  dup3\n  iszero\n  tag_5\n  jumpi\n  swap2\n  0x20\n  mul\n  dup3\n  add\ntag_6:\n  dup3\n  dup2\n  gt\n  iszero\n  tag_7\n  jumpi\n  dup3\n  mload\n  dup3\n  swap1\n  0xff\n  and\n  swap1\n  sstore\n  swap2\n  0x20\n  add\n  swap2\n  swap1\n  0x01\n  add\n  swap1\n  jump(tag_6)\ntag_7:\ntag_5:\n  pop\n  swap1\n  pop\n  tag_8\n  swap2\n  swap1\n  tag_9\n  jump\t// in\ntag_8:\n  pop\n  swap1\n  jump\t// out\ntag_9:\ntag_10:\n  dup1\n  dup3\n  gt\n  iszero\n  tag_11\n  jumpi\n  0x00\n  dup2\n  0x00\n  swap1\n  sstore\n  pop\n  0x01\n  add\n  jump(tag_10)\ntag_11:\n  pop\n  swap1\n  jump\t// out\ntag_4:\n  dataSize(sub_0)\n  dup1\n  dataOffset(sub_0)\n  0x00\n  codecopy\n  0x00\n  return\nstop\n\nsub_0: assembly {\n        /* \"contracts/array.sol\":59:1799  contract ArraysExercise {... */\n      mstore(0x40, 0x80)\n      callvalue\n      dup1\n      iszero\n      tag_1\n      jumpi\n      0x00\n      dup1\n      revert\n    tag_1:\n      pop\n      jumpi(tag_2, lt(calldatasize, 0x04))\n      shr(0xe0, calldataload(0x00))\n      dup1\n      0x89f915f6\n      gt\n      tag_10\n      jumpi\n      dup1\n      0x89f915f6\n      eq\n      tag_6\n      jumpi\n      dup1\n      0xa00b7acd\n      eq\n      tag_7\n      jumpi\n      dup1\n      0xade82bfd\n      eq\n      tag_8\n      jumpi\n      dup1\n      0xb1cebac5\n      eq\n      tag_9\n      jumpi\n      jump(tag_2)\n    tag_10:\n      dup1\n      0x20aaf79a\n      eq\n      tag_3\n      jumpi\n      dup1\n      0x4f9377db\n      eq\n      tag_4\n      jumpi\n      dup1\n      0x7f66b1b8\n      eq\n      tag_5\n      jumpi\n    tag_2:\n      0x00\n      dup1\n      revert\n        /* \"contracts/array.sol\":923:1655  function afterY2K() public view returns (uint256[] memory, address[] memory) {... */\n    tag_3:\n      tag_11\n      tag_12\n      jump\t// in\n    tag_11:\n      mload(0x40)\n      tag_13\n      swap3\n      swap2\n      swap1\n      tag_14\n      jump\t// in\n    tag_13:\n      mload(0x40)\n      dup1\n      swap2\n      sub\n      swap1\n      return\n        /* \"contracts/array.sol\":578:778  function appendToNumbers(uint[] calldata _toAppend) public {... */\n    tag_4:\n      tag_15\n      0x04\n      dup1\n      calldatasize\n      sub\n      dup2\n      add\n      swap1\n      tag_16\n      swap2\n      swap1\n      tag_17\n      jump\t// in\n    tag_16:\n      tag_18\n      jump\t// in\n    tag_15:\n      stop\n        /* \"contracts/array.sol\":1661:1723  function resetSenders() public {... */\n    tag_5:\n      tag_19\n      tag_20\n      jump\t// in\n    tag_19:\n      stop\n        /* \"contracts/array.sol\":230:477  function getNumbers() external view returns (uint[] memory) {... */\n    tag_6:\n      tag_21\n      tag_22\n      jump\t// in\n    tag_21:\n      mload(0x40)\n      tag_23\n      swap2\n      swap1\n      tag_24\n      jump\t// in\n    tag_23:\n      mload(0x40)\n      dup1\n      swap2\n      sub\n      swap1\n      return\n        /* \"contracts/array.sol\":784:917  function saveTimestamp(uint _unixTimestamp) public {... */\n    tag_7:\n      tag_25\n      0x04\n      dup1\n      calldatasize\n      sub\n      dup2\n      add\n      swap1\n      tag_26\n      swap2\n      swap1\n      tag_27\n      jump\t// in\n    tag_26:\n      tag_28\n      jump\t// in\n    tag_25:\n      stop\n        /* \"contracts/array.sol\":1729:1797  function resetTimestamps() public {... */\n    tag_8:\n      tag_29\n      tag_30\n      jump\t// in\n    tag_29:\n      stop\n        /* \"contracts/array.sol\":483:572  function resetNumbers() public {... */\n    tag_9:\n      tag_31\n      tag_32\n      jump\t// in\n    tag_31:\n      stop\n        /* \"contracts/array.sol\":923:1655  function afterY2K() public view returns (uint256[] memory, address[] memory) {... */\n    tag_12:\n        /* \"contracts/array.sol\":964:980  uint256[] memory */\n      0x60\n        /* \"contracts/array.sol\":982:998  address[] memory */\n      dup1\n        /* \"contracts/array.sol\":1009:1024  uint256 counter */\n      0x00\n        /* \"contracts/array.sol\":1042:1048  uint i */\n      dup1\n        /* \"contracts/array.sol\":1037:1168  for (uint i = 0; i < timestamps.length; i++) {... */\n    tag_34:\n        /* \"contracts/array.sol\":1058:1068  timestamps */\n      0x01\n        /* \"contracts/array.sol\":1058:1075  timestamps.length */\n      dup1\n      sload\n      swap1\n      pop\n        /* \"contracts/array.sol\":1054:1055  i */\n      dup2\n        /* \"contracts/array.sol\":1054:1075  i < timestamps.length */\n      lt\n        /* \"contracts/array.sol\":1037:1168  for (uint i = 0; i < timestamps.length; i++) {... */\n      iszero\n      tag_35\n      jumpi\n        /* \"contracts/array.sol\":213:222  946702800 */\n      0x386d89d0\n        /* \"contracts/array.sol\":1099:1109  timestamps */\n      0x01\n        /* \"contracts/array.sol\":1110:1111  i */\n      dup3\n        /* \"contracts/array.sol\":1099:1112  timestamps[i] */\n      dup2\n      sload\n      dup2\n      lt\n      tag_37\n      jumpi\n      tag_38\n      tag_39\n      jump\t// in\n    tag_38:\n    tag_37:\n      swap1\n      0x00\n      mstore\n      keccak256(0x00, 0x20)\n      add\n      sload\n        /* \"contracts/array.sol\":1099:1118  timestamps[i] > Y2K */\n      gt\n        /* \"contracts/array.sol\":1095:1160  if (timestamps[i] > Y2K) {... */\n      iszero\n      tag_41\n      jumpi\n        /* \"contracts/array.sol\":1137:1146  counter++ */\n      dup2\n      dup1\n      tag_42\n      swap1\n      tag_43\n      jump\t// in\n    tag_42:\n      swap3\n      pop\n      pop\n        /* \"contracts/array.sol\":1095:1160  if (timestamps[i] > Y2K) {... */\n    tag_41:\n        /* \"contracts/array.sol\":1077:1080  i++ */\n      dup1\n      dup1\n      tag_44\n      swap1\n      tag_43\n      jump\t// in\n    tag_44:\n      swap2\n      pop\n      pop\n        /* \"contracts/array.sol\":1037:1168  for (uint i = 0; i < timestamps.length; i++) {... */\n      jump(tag_34)\n    tag_35:\n      pop\n        /* \"contracts/array.sol\":1178:1213  uint256[] memory timestampsAfterY2K */\n      0x00\n        /* \"contracts/array.sol\":1230:1237  counter */\n      dup2\n        /* \"contracts/array.sol\":1216:1238  new uint256[](counter) */\n      0xffffffffffffffff\n      dup2\n      gt\n      iszero\n      tag_45\n      jumpi\n      tag_46\n      tag_47\n      jump\t// in\n    tag_46:\n    tag_45:\n      mload(0x40)\n      swap1\n      dup1\n      dup3\n      mstore\n      dup1\n      0x20\n      mul\n      0x20\n      add\n      dup3\n      add\n      0x40\n      mstore\n      dup1\n      iszero\n      tag_48\n      jumpi\n      dup2\n      0x20\n      add\n      0x20\n      dup3\n      mul\n      dup1\n      calldatasize\n      dup4\n      calldatacopy\n      dup1\n      dup3\n      add\n      swap2\n      pop\n      pop\n      swap1\n      pop\n    tag_48:\n      pop\n        /* \"contracts/array.sol\":1178:1238  uint256[] memory timestampsAfterY2K = new uint256[](counter) */\n      swap1\n      pop\n        /* \"contracts/array.sol\":1247:1279  address[] memory sendersAfterY2K */\n      0x00\n        /* \"contracts/array.sol\":1296:1303  counter */\n      dup3\n        /* \"contracts/array.sol\":1282:1304  new address[](counter) */\n      0xffffffffffffffff\n      dup2\n      gt\n      iszero\n      tag_49\n      jumpi\n      tag_50\n      tag_47\n      jump\t// in\n    tag_50:\n    tag_49:\n      mload(0x40)\n      swap1\n      dup1\n      dup3\n      mstore\n      dup1\n      0x20\n      mul\n      0x20\n      add\n      dup3\n      add\n      0x40\n      mstore\n      dup1\n      iszero\n      tag_51\n      jumpi\n      dup2\n      0x20\n      add\n      0x20\n      dup3\n      mul\n      dup1\n      calldatasize\n      dup4\n      calldatacopy\n      dup1\n      dup3\n      add\n      swap2\n      pop\n      pop\n      swap1\n      pop\n    tag_51:\n      pop\n        /* \"contracts/array.sol\":1247:1304  address[] memory sendersAfterY2K = new address[](counter) */\n      swap1\n      pop\n        /* \"contracts/array.sol\":1315:1328  uint256 index */\n      0x00\n        /* \"contracts/array.sol\":1348:1354  uint i */\n      dup1\n        /* \"contracts/array.sol\":1343:1592  for (uint i = 0; i < timestamps.length; i++) {... */\n    tag_52:\n        /* \"contracts/array.sol\":1364:1374  timestamps */\n      0x01\n        /* \"contracts/array.sol\":1364:1381  timestamps.length */\n      dup1\n      sload\n      swap1\n      pop\n        /* \"contracts/array.sol\":1360:1361  i */\n      dup2\n        /* \"contracts/array.sol\":1360:1381  i < timestamps.length */\n      lt\n        /* \"contracts/array.sol\":1343:1592  for (uint i = 0; i < timestamps.length; i++) {... */\n      iszero\n      tag_53\n      jumpi\n        /* \"contracts/array.sol\":213:222  946702800 */\n      0x386d89d0\n        /* \"contracts/array.sol\":1406:1416  timestamps */\n      0x01\n        /* \"contracts/array.sol\":1417:1418  i */\n      dup3\n        /* \"contracts/array.sol\":1406:1419  timestamps[i] */\n      dup2\n      sload\n      dup2\n      lt\n      tag_55\n      jumpi\n      tag_56\n      tag_39\n      jump\t// in\n    tag_56:\n    tag_55:\n      swap1\n      0x00\n      mstore\n      keccak256(0x00, 0x20)\n      add\n      sload\n        /* \"contracts/array.sol\":1406:1425  timestamps[i] > Y2K */\n      gt\n        /* \"contracts/array.sol\":1402:1583  if (timestamps[i] > Y2K) {... */\n      iszero\n      tag_58\n      jumpi\n        /* \"contracts/array.sol\":1473:1483  timestamps */\n      0x01\n        /* \"contracts/array.sol\":1484:1485  i */\n      dup2\n        /* \"contracts/array.sol\":1473:1486  timestamps[i] */\n      dup2\n      sload\n      dup2\n      lt\n      tag_59\n      jumpi\n      tag_60\n      tag_39\n      jump\t// in\n    tag_60:\n    tag_59:\n      swap1\n      0x00\n      mstore\n      keccak256(0x00, 0x20)\n      add\n      sload\n        /* \"contracts/array.sol\":1445:1463  timestampsAfterY2K */\n      dup5\n        /* \"contracts/array.sol\":1464:1469  index */\n      dup4\n        /* \"contracts/array.sol\":1445:1470  timestampsAfterY2K[index] */\n      dup2\n      mload\n      dup2\n      lt\n      tag_62\n      jumpi\n      tag_63\n      tag_39\n      jump\t// in\n    tag_63:\n    tag_62:\n      0x20\n      mul\n      0x20\n      add\n      add\n        /* \"contracts/array.sol\":1445:1486  timestampsAfterY2K[index] = timestamps[i] */\n      dup2\n      dup2\n      mstore\n      pop\n      pop\n        /* \"contracts/array.sol\":1529:1536  senders */\n      0x02\n        /* \"contracts/array.sol\":1537:1538  i */\n      dup2\n        /* \"contracts/array.sol\":1529:1539  senders[i] */\n      dup2\n      sload\n      dup2\n      lt\n      tag_64\n      jumpi\n      tag_65\n      tag_39\n      jump\t// in\n    tag_65:\n    tag_64:\n      swap1\n      0x00\n      mstore\n      keccak256(0x00, 0x20)\n      add\n      0x00\n      swap1\n      sload\n      swap1\n      0x0100\n      exp\n      swap1\n      div\n      0xffffffffffffffffffffffffffffffffffffffff\n      and\n        /* \"contracts/array.sol\":1504:1519  sendersAfterY2K */\n      dup4\n        /* \"contracts/array.sol\":1520:1525  index */\n      dup4\n        /* \"contracts/array.sol\":1504:1526  sendersAfterY2K[index] */\n      dup2\n      mload\n      dup2\n      lt\n      tag_67\n      jumpi\n      tag_68\n      tag_39\n      jump\t// in\n    tag_68:\n    tag_67:\n      0x20\n      mul\n      0x20\n      add\n      add\n        /* \"contracts/array.sol\":1504:1539  sendersAfterY2K[index] = senders[i] */\n      swap1\n      0xffffffffffffffffffffffffffffffffffffffff\n      and\n      swap1\n      dup2\n      0xffffffffffffffffffffffffffffffffffffffff\n      and\n      dup2\n      mstore\n      pop\n      pop\n        /* \"contracts/array.sol\":1561:1568  index++ */\n      dup2\n      dup1\n      tag_69\n      swap1\n      tag_43\n      jump\t// in\n    tag_69:\n      swap3\n      pop\n      pop\n        /* \"contracts/array.sol\":1402:1583  if (timestamps[i] > Y2K) {... */\n    tag_58:\n        /* \"contracts/array.sol\":1383:1386  i++ */\n      dup1\n      dup1\n      tag_70\n      swap1\n      tag_43\n      jump\t// in\n    tag_70:\n      swap2\n      pop\n      pop\n        /* \"contracts/array.sol\":1343:1592  for (uint i = 0; i < timestamps.length; i++) {... */\n      jump(tag_52)\n    tag_53:\n      pop\n        /* \"contracts/array.sol\":1610:1628  timestampsAfterY2K */\n      dup3\n        /* \"contracts/array.sol\":1630:1645  sendersAfterY2K */\n      dup3\n        /* \"contracts/array.sol\":1602:1646  return (timestampsAfterY2K, sendersAfterY2K) */\n      swap6\n      pop\n      swap6\n      pop\n      pop\n      pop\n      pop\n      pop\n        /* \"contracts/array.sol\":923:1655  function afterY2K() public view returns (uint256[] memory, address[] memory) {... */\n      swap1\n      swap2\n      jump\t// out\n        /* \"contracts/array.sol\":578:778  function appendToNumbers(uint[] calldata _toAppend) public {... */\n    tag_18:\n        /* \"contracts/array.sol\":647:660  uint _counter */\n      0x00\n        /* \"contracts/array.sol\":663:672  _toAppend */\n      dup3\n      dup3\n        /* \"contracts/array.sol\":663:679  _toAppend.length */\n      swap1\n      pop\n        /* \"contracts/array.sol\":647:679  uint _counter = _toAppend.length */\n      swap1\n      pop\n        /* \"contracts/array.sol\":694:700  uint i */\n      0x00\n        /* \"contracts/array.sol\":689:772  for (uint i; i < _counter; i++) {... */\n    tag_72:\n        /* \"contracts/array.sol\":706:714  _counter */\n      dup2\n        /* \"contracts/array.sol\":702:703  i */\n      dup2\n        /* \"contracts/array.sol\":702:714  i < _counter */\n      lt\n        /* \"contracts/array.sol\":689:772  for (uint i; i < _counter; i++) {... */\n      iszero\n      tag_73\n      jumpi\n        /* \"contracts/array.sol\":735:742  numbers */\n      0x00\n        /* \"contracts/array.sol\":748:757  _toAppend */\n      dup5\n      dup5\n        /* \"contracts/array.sol\":758:759  i */\n      dup4\n        /* \"contracts/array.sol\":748:760  _toAppend[i] */\n      dup2\n      dup2\n      lt\n      tag_75\n      jumpi\n      tag_76\n      tag_39\n      jump\t// in\n    tag_76:\n    tag_75:\n      swap1\n      pop\n      0x20\n      mul\n      add\n      calldataload\n        /* \"contracts/array.sol\":735:761  numbers.push(_toAppend[i]) */\n      swap1\n      dup1\n      0x01\n      dup2\n      sload\n      add\n      dup1\n      dup3\n      sstore\n      dup1\n      swap2\n      pop\n      pop\n      0x01\n      swap1\n      sub\n      swap1\n      0x00\n      mstore\n      keccak256(0x00, 0x20)\n      add\n      0x00\n      swap1\n      swap2\n      swap1\n      swap2\n      swap1\n      swap2\n      pop\n      sstore\n        /* \"contracts/array.sol\":716:719  i++ */\n      dup1\n      dup1\n      tag_78\n      swap1\n      tag_43\n      jump\t// in\n    tag_78:\n      swap2\n      pop\n      pop\n        /* \"contracts/array.sol\":689:772  for (uint i; i < _counter; i++) {... */\n      jump(tag_72)\n    tag_73:\n      pop\n        /* \"contracts/array.sol\":637:778  {... */\n      pop\n        /* \"contracts/array.sol\":578:778  function appendToNumbers(uint[] calldata _toAppend) public {... */\n      pop\n      pop\n      jump\t// out\n        /* \"contracts/array.sol\":1661:1723  function resetSenders() public {... */\n    tag_20:\n        /* \"contracts/array.sol\":1709:1716  senders */\n      0x02\n      0x00\n        /* \"contracts/array.sol\":1702:1716  delete senders */\n      tag_80\n      swap2\n      swap1\n      tag_81\n      jump\t// in\n    tag_80:\n        /* \"contracts/array.sol\":1661:1723  function resetSenders() public {... */\n      jump\t// out\n        /* \"contracts/array.sol\":230:477  function getNumbers() external view returns (uint[] memory) {... */\n    tag_22:\n        /* \"contracts/array.sol\":275:288  uint[] memory */\n      0x60\n        /* \"contracts/array.sol\":300:321  uint[] memory results */\n      0x00\n        /* \"contracts/array.sol\":335:342  numbers */\n      dup1\n        /* \"contracts/array.sol\":335:349  numbers.length */\n      dup1\n      sload\n      swap1\n      pop\n        /* \"contracts/array.sol\":324:350  new uint[](numbers.length) */\n      0xffffffffffffffff\n      dup2\n      gt\n      iszero\n      tag_83\n      jumpi\n      tag_84\n      tag_47\n      jump\t// in\n    tag_84:\n    tag_83:\n      mload(0x40)\n      swap1\n      dup1\n      dup3\n      mstore\n      dup1\n      0x20\n      mul\n      0x20\n      add\n      dup3\n      add\n      0x40\n      mstore\n      dup1\n      iszero\n      tag_85\n      jumpi\n      dup2\n      0x20\n      add\n      0x20\n      dup3\n      mul\n      dup1\n      calldatasize\n      dup4\n      calldatacopy\n      dup1\n      dup3\n      add\n      swap2\n      pop\n      pop\n      swap1\n      pop\n    tag_85:\n      pop\n        /* \"contracts/array.sol\":300:350  uint[] memory results = new uint[](numbers.length) */\n      swap1\n      pop\n        /* \"contracts/array.sol\":365:371  uint i */\n      0x00\n        /* \"contracts/array.sol\":361:446  for(uint i=0; i<numbers.length; i++) {... */\n    tag_86:\n        /* \"contracts/array.sol\":377:384  numbers */\n      0x00\n        /* \"contracts/array.sol\":377:391  numbers.length */\n      dup1\n      sload\n      swap1\n      pop\n        /* \"contracts/array.sol\":375:376  i */\n      dup2\n        /* \"contracts/array.sol\":375:391  i<numbers.length */\n      lt\n        /* \"contracts/array.sol\":361:446  for(uint i=0; i<numbers.length; i++) {... */\n      iszero\n      tag_87\n      jumpi\n        /* \"contracts/array.sol\":425:432  numbers */\n      0x00\n        /* \"contracts/array.sol\":433:434  i */\n      dup2\n        /* \"contracts/array.sol\":425:435  numbers[i] */\n      dup2\n      sload\n      dup2\n      lt\n      tag_89\n      jumpi\n      tag_90\n      tag_39\n      jump\t// in\n    tag_90:\n    tag_89:\n      swap1\n      0x00\n      mstore\n      keccak256(0x00, 0x20)\n      add\n      sload\n        /* \"contracts/array.sol\":412:419  results */\n      dup3\n        /* \"contracts/array.sol\":420:421  i */\n      dup3\n        /* \"contracts/array.sol\":412:422  results[i] */\n      dup2\n      mload\n      dup2\n      lt\n      tag_92\n      jumpi\n      tag_93\n      tag_39\n      jump\t// in\n    tag_93:\n    tag_92:\n      0x20\n      mul\n      0x20\n      add\n      add\n        /* \"contracts/array.sol\":412:435  results[i] = numbers[i] */\n      dup2\n      dup2\n      mstore\n      pop\n      pop\n        /* \"contracts/array.sol\":393:396  i++ */\n      dup1\n      dup1\n      tag_94\n      swap1\n      tag_43\n      jump\t// in\n    tag_94:\n      swap2\n      pop\n      pop\n        /* \"contracts/array.sol\":361:446  for(uint i=0; i<numbers.length; i++) {... */\n      jump(tag_86)\n    tag_87:\n      pop\n        /* \"contracts/array.sol\":463:470  results */\n      dup1\n        /* \"contracts/array.sol\":456:470  return results */\n      swap2\n      pop\n      pop\n        /* \"contracts/array.sol\":230:477  function getNumbers() external view returns (uint[] memory) {... */\n      swap1\n      jump\t// out\n        /* \"contracts/array.sol\":784:917  function saveTimestamp(uint _unixTimestamp) public {... */\n    tag_28:\n        /* \"contracts/array.sol\":845:855  timestamps */\n      0x01\n        /* \"contracts/array.sol\":861:875  _unixTimestamp */\n      dup2\n        /* \"contracts/array.sol\":845:876  timestamps.push(_unixTimestamp) */\n      swap1\n      dup1\n      0x01\n      dup2\n      sload\n      add\n      dup1\n      dup3\n      sstore\n      dup1\n      swap2\n      pop\n      pop\n      0x01\n      swap1\n      sub\n      swap1\n      0x00\n      mstore\n      keccak256(0x00, 0x20)\n      add\n      0x00\n      swap1\n      swap2\n      swap1\n      swap2\n      swap1\n      swap2\n      pop\n      sstore\n        /* \"contracts/array.sol\":886:893  senders */\n      0x02\n        /* \"contracts/array.sol\":899:909  msg.sender */\n      caller\n        /* \"contracts/array.sol\":886:910  senders.push(msg.sender) */\n      swap1\n      dup1\n      0x01\n      dup2\n      sload\n      add\n      dup1\n      dup3\n      sstore\n      dup1\n      swap2\n      pop\n      pop\n      0x01\n      swap1\n      sub\n      swap1\n      0x00\n      mstore\n      keccak256(0x00, 0x20)\n      add\n      0x00\n      swap1\n      swap2\n      swap1\n      swap2\n      swap1\n      swap2\n      0x0100\n      exp\n      dup2\n      sload\n      dup2\n      0xffffffffffffffffffffffffffffffffffffffff\n      mul\n      not\n      and\n      swap1\n      dup4\n      0xffffffffffffffffffffffffffffffffffffffff\n      and\n      mul\n      or\n      swap1\n      sstore\n      pop\n        /* \"contracts/array.sol\":784:917  function saveTimestamp(uint _unixTimestamp) public {... */\n      pop\n      jump\t// out\n        /* \"contracts/array.sol\":1729:1797  function resetTimestamps() public {... */\n    tag_30:\n        /* \"contracts/array.sol\":1780:1790  timestamps */\n      0x01\n      0x00\n        /* \"contracts/array.sol\":1773:1790  delete timestamps */\n      tag_99\n      swap2\n      swap1\n      tag_100\n      jump\t// in\n    tag_99:\n        /* \"contracts/array.sol\":1729:1797  function resetTimestamps() public {... */\n      jump\t// out\n        /* \"contracts/array.sol\":483:572  function resetNumbers() public {... */\n    tag_32:\n        /* \"contracts/array.sol\":524:565  numbers = [1, 2, 3, 4, 5, 6, 7, 8, 9, 10] */\n      mload(0x40)\n      dup1\n      0x0140\n      add\n      0x40\n      mstore\n      dup1\n        /* \"contracts/array.sol\":535:536  1 */\n      0x01\n        /* \"contracts/array.sol\":524:565  numbers = [1, 2, 3, 4, 5, 6, 7, 8, 9, 10] */\n      0xff\n      and\n      dup2\n      mstore\n      0x20\n      add\n        /* \"contracts/array.sol\":538:539  2 */\n      0x02\n        /* \"contracts/array.sol\":524:565  numbers = [1, 2, 3, 4, 5, 6, 7, 8, 9, 10] */\n      0xff\n      and\n      dup2\n      mstore\n      0x20\n      add\n        /* \"contracts/array.sol\":541:542  3 */\n      0x03\n        /* \"contracts/array.sol\":524:565  numbers = [1, 2, 3, 4, 5, 6, 7, 8, 9, 10] */\n      0xff\n      and\n      dup2\n      mstore\n      0x20\n      add\n        /* \"contracts/array.sol\":544:545  4 */\n      0x04\n        /* \"contracts/array.sol\":524:565  numbers = [1, 2, 3, 4, 5, 6, 7, 8, 9, 10] */\n      0xff\n      and\n      dup2\n      mstore\n      0x20\n      add\n        /* \"contracts/array.sol\":547:548  5 */\n      0x05\n        /* \"contracts/array.sol\":524:565  numbers = [1, 2, 3, 4, 5, 6, 7, 8, 9, 10] */\n      0xff\n      and\n      dup2\n      mstore\n      0x20\n      add\n        /* \"contracts/array.sol\":550:551  6 */\n      0x06\n        /* \"contracts/array.sol\":524:565  numbers = [1, 2, 3, 4, 5, 6, 7, 8, 9, 10] */\n      0xff\n      and\n      dup2\n      mstore\n      0x20\n      add\n        /* \"contracts/array.sol\":553:554  7 */\n      0x07\n        /* \"contracts/array.sol\":524:565  numbers = [1, 2, 3, 4, 5, 6, 7, 8, 9, 10] */\n      0xff\n      and\n      dup2\n      mstore\n      0x20\n      add\n        /* \"contracts/array.sol\":556:557  8 */\n      0x08\n        /* \"contracts/array.sol\":524:565  numbers = [1, 2, 3, 4, 5, 6, 7, 8, 9, 10] */\n      0xff\n      and\n      dup2\n      mstore\n      0x20\n      add\n        /* \"contracts/array.sol\":559:560  9 */\n      0x09\n        /* \"contracts/array.sol\":524:565  numbers = [1, 2, 3, 4, 5, 6, 7, 8, 9, 10] */\n      0xff\n      and\n      dup2\n      mstore\n      0x20\n      add\n        /* \"contracts/array.sol\":562:564  10 */\n      0x0a\n        /* \"contracts/array.sol\":524:565  numbers = [1, 2, 3, 4, 5, 6, 7, 8, 9, 10] */\n      0xff\n      and\n      dup2\n      mstore\n      pop\n        /* \"contracts/array.sol\":524:531  numbers */\n      0x00\n        /* \"contracts/array.sol\":524:565  numbers = [1, 2, 3, 4, 5, 6, 7, 8, 9, 10] */\n      swap1\n      0x0a\n      tag_102\n      swap3\n      swap2\n      swap1\n      tag_103\n      jump\t// in\n    tag_102:\n      pop\n        /* \"contracts/array.sol\":483:572  function resetNumbers() public {... */\n      jump\t// out\n    tag_81:\n      pop\n      dup1\n      sload\n      0x00\n      dup3\n      sstore\n      swap1\n      0x00\n      mstore\n      keccak256(0x00, 0x20)\n      swap1\n      dup2\n      add\n      swap1\n      tag_105\n      swap2\n      swap1\n      tag_106\n      jump\t// in\n    tag_105:\n      pop\n      jump\t// out\n    tag_100:\n      pop\n      dup1\n      sload\n      0x00\n      dup3\n      sstore\n      swap1\n      0x00\n      mstore\n      keccak256(0x00, 0x20)\n      swap1\n      dup2\n      add\n      swap1\n      tag_108\n      swap2\n      swap1\n      tag_106\n      jump\t// in\n    tag_108:\n      pop\n      jump\t// out\n    tag_103:\n      dup3\n      dup1\n      sload\n      dup3\n      dup3\n      sstore\n      swap1\n      0x00\n      mstore\n      keccak256(0x00, 0x20)\n      swap1\n      dup2\n      add\n      swap3\n      dup3\n      iszero\n      tag_109\n      jumpi\n      swap2\n      0x20\n      mul\n      dup3\n      add\n    tag_110:\n      dup3\n      dup2\n      gt\n      iszero\n      tag_111\n      jumpi\n      dup3\n      mload\n      dup3\n      swap1\n      0xff\n      and\n      swap1\n      sstore\n      swap2\n      0x20\n      add\n      swap2\n      swap1\n      0x01\n      add\n      swap1\n      jump(tag_110)\n    tag_111:\n    tag_109:\n      pop\n      swap1\n      pop\n      tag_112\n      swap2\n      swap1\n      tag_106\n      jump\t// in\n    tag_112:\n      pop\n      swap1\n      jump\t// out\n    tag_106:\n    tag_113:\n      dup1\n      dup3\n      gt\n      iszero\n      tag_114\n      jumpi\n      0x00\n      dup2\n      0x00\n      swap1\n      sstore\n      pop\n      0x01\n      add\n      jump(tag_113)\n    tag_114:\n      pop\n      swap1\n      jump\t// out\n        /* \"#utility.yul\":7:121   */\n    tag_115:\n        /* \"#utility.yul\":74:80   */\n      0x00\n        /* \"#utility.yul\":108:113   */\n      dup2\n        /* \"#utility.yul\":102:114   */\n      mload\n        /* \"#utility.yul\":92:114   */\n      swap1\n      pop\n        /* \"#utility.yul\":7:121   */\n      swap2\n      swap1\n      pop\n      jump\t// out\n        /* \"#utility.yul\":127:311   */\n    tag_116:\n        /* \"#utility.yul\":226:237   */\n      0x00\n        /* \"#utility.yul\":260:266   */\n      dup3\n        /* \"#utility.yul\":255:258   */\n      dup3\n        /* \"#utility.yul\":248:267   */\n      mstore\n        /* \"#utility.yul\":300:304   */\n      0x20\n        /* \"#utility.yul\":295:298   */\n      dup3\n        /* \"#utility.yul\":291:305   */\n      add\n        /* \"#utility.yul\":276:305   */\n      swap1\n      pop\n        /* \"#utility.yul\":127:311   */\n      swap3\n      swap2\n      pop\n      pop\n      jump\t// out\n        /* \"#utility.yul\":317:449   */\n    tag_117:\n        /* \"#utility.yul\":384:388   */\n      0x00\n        /* \"#utility.yul\":407:410   */\n      dup2\n        /* \"#utility.yul\":399:410   */\n      swap1\n      pop\n        /* \"#utility.yul\":437:441   */\n      0x20\n        /* \"#utility.yul\":432:435   */\n      dup3\n        /* \"#utility.yul\":428:442   */\n      add\n        /* \"#utility.yul\":420:442   */\n      swap1\n      pop\n        /* \"#utility.yul\":317:449   */\n      swap2\n      swap1\n      pop\n      jump\t// out\n        /* \"#utility.yul\":455:532   */\n    tag_118:\n        /* \"#utility.yul\":492:499   */\n      0x00\n        /* \"#utility.yul\":521:526   */\n      dup2\n        /* \"#utility.yul\":510:526   */\n      swap1\n      pop\n        /* \"#utility.yul\":455:532   */\n      swap2\n      swap1\n      pop\n      jump\t// out\n        /* \"#utility.yul\":538:646   */\n    tag_119:\n        /* \"#utility.yul\":615:639   */\n      tag_148\n        /* \"#utility.yul\":633:638   */\n      dup2\n        /* \"#utility.yul\":615:639   */\n      tag_118\n      jump\t// in\n    tag_148:\n        /* \"#utility.yul\":610:613   */\n      dup3\n        /* \"#utility.yul\":603:640   */\n      mstore\n        /* \"#utility.yul\":538:646   */\n      pop\n      pop\n      jump\t// out\n        /* \"#utility.yul\":652:831   */\n    tag_120:\n        /* \"#utility.yul\":721:731   */\n      0x00\n        /* \"#utility.yul\":742:788   */\n      tag_150\n        /* \"#utility.yul\":784:787   */\n      dup4\n        /* \"#utility.yul\":776:782   */\n      dup4\n        /* \"#utility.yul\":742:788   */\n      tag_119\n      jump\t// in\n    tag_150:\n        /* \"#utility.yul\":820:824   */\n      0x20\n        /* \"#utility.yul\":815:818   */\n      dup4\n        /* \"#utility.yul\":811:825   */\n      add\n        /* \"#utility.yul\":797:825   */\n      swap1\n      pop\n        /* \"#utility.yul\":652:831   */\n      swap3\n      swap2\n      pop\n      pop\n      jump\t// out\n        /* \"#utility.yul\":837:950   */\n    tag_121:\n        /* \"#utility.yul\":907:911   */\n      0x00\n        /* \"#utility.yul\":939:943   */\n      0x20\n        /* \"#utility.yul\":934:937   */\n      dup3\n        /* \"#utility.yul\":930:944   */\n      add\n        /* \"#utility.yul\":922:944   */\n      swap1\n      pop\n        /* \"#utility.yul\":837:950   */\n      swap2\n      swap1\n      pop\n      jump\t// out\n        /* \"#utility.yul\":986:1718   */\n    tag_122:\n        /* \"#utility.yul\":1105:1108   */\n      0x00\n        /* \"#utility.yul\":1134:1188   */\n      tag_153\n        /* \"#utility.yul\":1182:1187   */\n      dup3\n        /* \"#utility.yul\":1134:1188   */\n      tag_115\n      jump\t// in\n    tag_153:\n        /* \"#utility.yul\":1204:1290   */\n      tag_154\n        /* \"#utility.yul\":1283:1289   */\n      dup2\n        /* \"#utility.yul\":1278:1281   */\n      dup6\n        /* \"#utility.yul\":1204:1290   */\n      tag_116\n      jump\t// in\n    tag_154:\n        /* \"#utility.yul\":1197:1290   */\n      swap4\n      pop\n        /* \"#utility.yul\":1314:1370   */\n      tag_155\n        /* \"#utility.yul\":1364:1369   */\n      dup4\n        /* \"#utility.yul\":1314:1370   */\n      tag_117\n      jump\t// in\n    tag_155:\n        /* \"#utility.yul\":1393:1400   */\n      dup1\n        /* \"#utility.yul\":1424:1425   */\n      0x00\n        /* \"#utility.yul\":1409:1693   */\n    tag_156:\n        /* \"#utility.yul\":1434:1440   */\n      dup4\n        /* \"#utility.yul\":1431:1432   */\n      dup2\n        /* \"#utility.yul\":1428:1441   */\n      lt\n        /* \"#utility.yul\":1409:1693   */\n      iszero\n      tag_158\n      jumpi\n        /* \"#utility.yul\":1510:1516   */\n      dup2\n        /* \"#utility.yul\":1504:1517   */\n      mload\n        /* \"#utility.yul\":1537:1600   */\n      tag_159\n        /* \"#utility.yul\":1596:1599   */\n      dup9\n        /* \"#utility.yul\":1581:1594   */\n      dup3\n        /* \"#utility.yul\":1537:1600   */\n      tag_120\n      jump\t// in\n    tag_159:\n        /* \"#utility.yul\":1530:1600   */\n      swap8\n      pop\n        /* \"#utility.yul\":1623:1683   */\n      tag_160\n        /* \"#utility.yul\":1676:1682   */\n      dup4\n        /* \"#utility.yul\":1623:1683   */\n      tag_121\n      jump\t// in\n    tag_160:\n        /* \"#utility.yul\":1613:1683   */\n      swap3\n      pop\n        /* \"#utility.yul\":1469:1693   */\n      pop\n        /* \"#utility.yul\":1456:1457   */\n      0x01\n        /* \"#utility.yul\":1453:1454   */\n      dup2\n        /* \"#utility.yul\":1449:1458   */\n      add\n        /* \"#utility.yul\":1444:1458   */\n      swap1\n      pop\n        /* \"#utility.yul\":1409:1693   */\n      jump(tag_156)\n    tag_158:\n        /* \"#utility.yul\":1413:1427   */\n      pop\n        /* \"#utility.yul\":1709:1712   */\n      dup6\n        /* \"#utility.yul\":1702:1712   */\n      swap4\n      pop\n        /* \"#utility.yul\":1110:1718   */\n      pop\n      pop\n      pop\n        /* \"#utility.yul\":986:1718   */\n      swap3\n      swap2\n      pop\n      pop\n      jump\t// out\n        /* \"#utility.yul\":1724:1838   */\n    tag_123:\n        /* \"#utility.yul\":1791:1797   */\n      0x00\n        /* \"#utility.yul\":1825:1830   */\n      dup2\n        /* \"#utility.yul\":1819:1831   */\n      mload\n        /* \"#utility.yul\":1809:1831   */\n      swap1\n      pop\n        /* \"#utility.yul\":1724:1838   */\n      swap2\n      swap1\n      pop\n      jump\t// out\n        /* \"#utility.yul\":1844:2028   */\n    tag_124:\n        /* \"#utility.yul\":1943:1954   */\n      0x00\n        /* \"#utility.yul\":1977:1983   */\n      dup3\n        /* \"#utility.yul\":1972:1975   */\n      dup3\n        /* \"#utility.yul\":1965:1984   */\n      mstore\n        /* \"#utility.yul\":2017:2021   */\n      0x20\n        /* \"#utility.yul\":2012:2015   */\n      dup3\n        /* \"#utility.yul\":2008:2022   */\n      add\n        /* \"#utility.yul\":1993:2022   */\n      swap1\n      pop\n        /* \"#utility.yul\":1844:2028   */\n      swap3\n      swap2\n      pop\n      pop\n      jump\t// out\n        /* \"#utility.yul\":2034:2166   */\n    tag_125:\n        /* \"#utility.yul\":2101:2105   */\n      0x00\n        /* \"#utility.yul\":2124:2127   */\n      dup2\n        /* \"#utility.yul\":2116:2127   */\n      swap1\n      pop\n        /* \"#utility.yul\":2154:2158   */\n      0x20\n        /* \"#utility.yul\":2149:2152   */\n      dup3\n        /* \"#utility.yul\":2145:2159   */\n      add\n        /* \"#utility.yul\":2137:2159   */\n      swap1\n      pop\n        /* \"#utility.yul\":2034:2166   */\n      swap2\n      swap1\n      pop\n      jump\t// out\n        /* \"#utility.yul\":2172:2298   */\n    tag_126:\n        /* \"#utility.yul\":2209:2216   */\n      0x00\n        /* \"#utility.yul\":2249:2291   */\n      0xffffffffffffffffffffffffffffffffffffffff\n        /* \"#utility.yul\":2242:2247   */\n      dup3\n        /* \"#utility.yul\":2238:2292   */\n      and\n        /* \"#utility.yul\":2227:2292   */\n      swap1\n      pop\n        /* \"#utility.yul\":2172:2298   */\n      swap2\n      swap1\n      pop\n      jump\t// out\n        /* \"#utility.yul\":2304:2400   */\n    tag_127:\n        /* \"#utility.yul\":2341:2348   */\n      0x00\n        /* \"#utility.yul\":2370:2394   */\n      tag_166\n        /* \"#utility.yul\":2388:2393   */\n      dup3\n        /* \"#utility.yul\":2370:2394   */\n      tag_126\n      jump\t// in\n    tag_166:\n        /* \"#utility.yul\":2359:2394   */\n      swap1\n      pop\n        /* \"#utility.yul\":2304:2400   */\n      swap2\n      swap1\n      pop\n      jump\t// out\n        /* \"#utility.yul\":2406:2514   */\n    tag_128:\n        /* \"#utility.yul\":2483:2507   */\n      tag_168\n        /* \"#utility.yul\":2501:2506   */\n      dup2\n        /* \"#utility.yul\":2483:2507   */\n      tag_127\n      jump\t// in\n    tag_168:\n        /* \"#utility.yul\":2478:2481   */\n      dup3\n        /* \"#utility.yul\":2471:2508   */\n      mstore\n        /* \"#utility.yul\":2406:2514   */\n      pop\n      pop\n      jump\t// out\n        /* \"#utility.yul\":2520:2699   */\n    tag_129:\n        /* \"#utility.yul\":2589:2599   */\n      0x00\n        /* \"#utility.yul\":2610:2656   */\n      tag_170\n        /* \"#utility.yul\":2652:2655   */\n      dup4\n        /* \"#utility.yul\":2644:2650   */\n      dup4\n        /* \"#utility.yul\":2610:2656   */\n      tag_128\n      jump\t// in\n    tag_170:\n        /* \"#utility.yul\":2688:2692   */\n      0x20\n        /* \"#utility.yul\":2683:2686   */\n      dup4\n        /* \"#utility.yul\":2679:2693   */\n      add\n        /* \"#utility.yul\":2665:2693   */\n      swap1\n      pop\n        /* \"#utility.yul\":2520:2699   */\n      swap3\n      swap2\n      pop\n      pop\n      jump\t// out\n        /* \"#utility.yul\":2705:2818   */\n    tag_130:\n        /* \"#utility.yul\":2775:2779   */\n      0x00\n        /* \"#utility.yul\":2807:2811   */\n      0x20\n        /* \"#utility.yul\":2802:2805   */\n      dup3\n        /* \"#utility.yul\":2798:2812   */\n      add\n        /* \"#utility.yul\":2790:2812   */\n      swap1\n      pop\n        /* \"#utility.yul\":2705:2818   */\n      swap2\n      swap1\n      pop\n      jump\t// out\n        /* \"#utility.yul\":2854:3586   */\n    tag_131:\n        /* \"#utility.yul\":2973:2976   */\n      0x00\n        /* \"#utility.yul\":3002:3056   */\n      tag_173\n        /* \"#utility.yul\":3050:3055   */\n      dup3\n        /* \"#utility.yul\":3002:3056   */\n      tag_123\n      jump\t// in\n    tag_173:\n        /* \"#utility.yul\":3072:3158   */\n      tag_174\n        /* \"#utility.yul\":3151:3157   */\n      dup2\n        /* \"#utility.yul\":3146:3149   */\n      dup6\n        /* \"#utility.yul\":3072:3158   */\n      tag_124\n      jump\t// in\n    tag_174:\n        /* \"#utility.yul\":3065:3158   */\n      swap4\n      pop\n        /* \"#utility.yul\":3182:3238   */\n      tag_175\n        /* \"#utility.yul\":3232:3237   */\n      dup4\n        /* \"#utility.yul\":3182:3238   */\n      tag_125\n      jump\t// in\n    tag_175:\n        /* \"#utility.yul\":3261:3268   */\n      dup1\n        /* \"#utility.yul\":3292:3293   */\n      0x00\n        /* \"#utility.yul\":3277:3561   */\n    tag_176:\n        /* \"#utility.yul\":3302:3308   */\n      dup4\n        /* \"#utility.yul\":3299:3300   */\n      dup2\n        /* \"#utility.yul\":3296:3309   */\n      lt\n        /* \"#utility.yul\":3277:3561   */\n      iszero\n      tag_178\n      jumpi\n        /* \"#utility.yul\":3378:3384   */\n      dup2\n        /* \"#utility.yul\":3372:3385   */\n      mload\n        /* \"#utility.yul\":3405:3468   */\n      tag_179\n        /* \"#utility.yul\":3464:3467   */\n      dup9\n        /* \"#utility.yul\":3449:3462   */\n      dup3\n        /* \"#utility.yul\":3405:3468   */\n      tag_129\n      jump\t// in\n    tag_179:\n        /* \"#utility.yul\":3398:3468   */\n      swap8\n      pop\n        /* \"#utility.yul\":3491:3551   */\n      tag_180\n        /* \"#utility.yul\":3544:3550   */\n      dup4\n        /* \"#utility.yul\":3491:3551   */\n      tag_130\n      jump\t// in\n    tag_180:\n        /* \"#utility.yul\":3481:3551   */\n      swap3\n      pop\n        /* \"#utility.yul\":3337:3561   */\n      pop\n        /* \"#utility.yul\":3324:3325   */\n      0x01\n        /* \"#utility.yul\":3321:3322   */\n      dup2\n        /* \"#utility.yul\":3317:3326   */\n      add\n        /* \"#utility.yul\":3312:3326   */\n      swap1\n      pop\n        /* \"#utility.yul\":3277:3561   */\n      jump(tag_176)\n    tag_178:\n        /* \"#utility.yul\":3281:3295   */\n      pop\n        /* \"#utility.yul\":3577:3580   */\n      dup6\n        /* \"#utility.yul\":3570:3580   */\n      swap4\n      pop\n        /* \"#utility.yul\":2978:3586   */\n      pop\n      pop\n      pop\n        /* \"#utility.yul\":2854:3586   */\n      swap3\n      swap2\n      pop\n      pop\n      jump\t// out\n        /* \"#utility.yul\":3592:4226   */\n    tag_14:\n        /* \"#utility.yul\":3813:3817   */\n      0x00\n        /* \"#utility.yul\":3851:3853   */\n      0x40\n        /* \"#utility.yul\":3840:3849   */\n      dup3\n        /* \"#utility.yul\":3836:3854   */\n      add\n        /* \"#utility.yul\":3828:3854   */\n      swap1\n      pop\n        /* \"#utility.yul\":3900:3909   */\n      dup2\n        /* \"#utility.yul\":3894:3898   */\n      dup2\n        /* \"#utility.yul\":3890:3910   */\n      sub\n        /* \"#utility.yul\":3886:3887   */\n      0x00\n        /* \"#utility.yul\":3875:3884   */\n      dup4\n        /* \"#utility.yul\":3871:3888   */\n      add\n        /* \"#utility.yul\":3864:3911   */\n      mstore\n        /* \"#utility.yul\":3928:4036   */\n      tag_182\n        /* \"#utility.yul\":4031:4035   */\n      dup2\n        /* \"#utility.yul\":4022:4028   */\n      dup6\n        /* \"#utility.yul\":3928:4036   */\n      tag_122\n      jump\t// in\n    tag_182:\n        /* \"#utility.yul\":3920:4036   */\n      swap1\n      pop\n        /* \"#utility.yul\":4083:4092   */\n      dup2\n        /* \"#utility.yul\":4077:4081   */\n      dup2\n        /* \"#utility.yul\":4073:4093   */\n      sub\n        /* \"#utility.yul\":4068:4070   */\n      0x20\n        /* \"#utility.yul\":4057:4066   */\n      dup4\n        /* \"#utility.yul\":4053:4071   */\n      add\n        /* \"#utility.yul\":4046:4094   */\n      mstore\n        /* \"#utility.yul\":4111:4219   */\n      tag_183\n        /* \"#utility.yul\":4214:4218   */\n      dup2\n        /* \"#utility.yul\":4205:4211   */\n      dup5\n        /* \"#utility.yul\":4111:4219   */\n      tag_131\n      jump\t// in\n    tag_183:\n        /* \"#utility.yul\":4103:4219   */\n      swap1\n      pop\n        /* \"#utility.yul\":3592:4226   */\n      swap4\n      swap3\n      pop\n      pop\n      pop\n      jump\t// out\n        /* \"#utility.yul\":4313:4430   */\n    tag_133:\n        /* \"#utility.yul\":4422:4423   */\n      0x00\n        /* \"#utility.yul\":4419:4420   */\n      dup1\n        /* \"#utility.yul\":4412:4424   */\n      revert\n        /* \"#utility.yul\":4436:4553   */\n    tag_134:\n        /* \"#utility.yul\":4545:4546   */\n      0x00\n        /* \"#utility.yul\":4542:4543   */\n      dup1\n        /* \"#utility.yul\":4535:4547   */\n      revert\n        /* \"#utility.yul\":4559:4676   */\n    tag_135:\n        /* \"#utility.yul\":4668:4669   */\n      0x00\n        /* \"#utility.yul\":4665:4666   */\n      dup1\n        /* \"#utility.yul\":4658:4670   */\n      revert\n        /* \"#utility.yul\":4682:4799   */\n    tag_136:\n        /* \"#utility.yul\":4791:4792   */\n      0x00\n        /* \"#utility.yul\":4788:4789   */\n      dup1\n        /* \"#utility.yul\":4781:4793   */\n      revert\n        /* \"#utility.yul\":4805:4922   */\n    tag_137:\n        /* \"#utility.yul\":4914:4915   */\n      0x00\n        /* \"#utility.yul\":4911:4912   */\n      dup1\n        /* \"#utility.yul\":4904:4916   */\n      revert\n        /* \"#utility.yul\":4945:5513   */\n    tag_138:\n        /* \"#utility.yul\":5018:5026   */\n      0x00\n        /* \"#utility.yul\":5028:5034   */\n      dup1\n        /* \"#utility.yul\":5078:5081   */\n      dup4\n        /* \"#utility.yul\":5071:5075   */\n      0x1f\n        /* \"#utility.yul\":5063:5069   */\n      dup5\n        /* \"#utility.yul\":5059:5076   */\n      add\n        /* \"#utility.yul\":5055:5082   */\n      slt\n        /* \"#utility.yul\":5045:5167   */\n      tag_191\n      jumpi\n        /* \"#utility.yul\":5086:5165   */\n      tag_192\n      tag_135\n      jump\t// in\n    tag_192:\n        /* \"#utility.yul\":5045:5167   */\n    tag_191:\n        /* \"#utility.yul\":5199:5205   */\n      dup3\n        /* \"#utility.yul\":5186:5206   */\n      calldataload\n        /* \"#utility.yul\":5176:5206   */\n      swap1\n      pop\n        /* \"#utility.yul\":5229:5247   */\n      0xffffffffffffffff\n        /* \"#utility.yul\":5221:5227   */\n      dup2\n        /* \"#utility.yul\":5218:5248   */\n      gt\n        /* \"#utility.yul\":5215:5332   */\n      iszero\n      tag_193\n      jumpi\n        /* \"#utility.yul\":5251:5330   */\n      tag_194\n      tag_136\n      jump\t// in\n    tag_194:\n        /* \"#utility.yul\":5215:5332   */\n    tag_193:\n        /* \"#utility.yul\":5365:5369   */\n      0x20\n        /* \"#utility.yul\":5357:5363   */\n      dup4\n        /* \"#utility.yul\":5353:5370   */\n      add\n        /* \"#utility.yul\":5341:5370   */\n      swap2\n      pop\n        /* \"#utility.yul\":5419:5422   */\n      dup4\n        /* \"#utility.yul\":5411:5415   */\n      0x20\n        /* \"#utility.yul\":5403:5409   */\n      dup3\n        /* \"#utility.yul\":5399:5416   */\n      mul\n        /* \"#utility.yul\":5389:5397   */\n      dup4\n        /* \"#utility.yul\":5385:5417   */\n      add\n        /* \"#utility.yul\":5382:5423   */\n      gt\n        /* \"#utility.yul\":5379:5507   */\n      iszero\n      tag_195\n      jumpi\n        /* \"#utility.yul\":5426:5505   */\n      tag_196\n      tag_137\n      jump\t// in\n    tag_196:\n        /* \"#utility.yul\":5379:5507   */\n    tag_195:\n        /* \"#utility.yul\":4945:5513   */\n      swap3\n      pop\n      swap3\n      swap1\n      pop\n      jump\t// out\n        /* \"#utility.yul\":5519:6078   */\n    tag_17:\n        /* \"#utility.yul\":5605:5611   */\n      0x00\n        /* \"#utility.yul\":5613:5619   */\n      dup1\n        /* \"#utility.yul\":5662:5664   */\n      0x20\n        /* \"#utility.yul\":5650:5659   */\n      dup4\n        /* \"#utility.yul\":5641:5648   */\n      dup6\n        /* \"#utility.yul\":5637:5660   */\n      sub\n        /* \"#utility.yul\":5633:5665   */\n      slt\n        /* \"#utility.yul\":5630:5749   */\n      iszero\n      tag_198\n      jumpi\n        /* \"#utility.yul\":5668:5747   */\n      tag_199\n      tag_133\n      jump\t// in\n    tag_199:\n        /* \"#utility.yul\":5630:5749   */\n    tag_198:\n        /* \"#utility.yul\":5816:5817   */\n      0x00\n        /* \"#utility.yul\":5805:5814   */\n      dup4\n        /* \"#utility.yul\":5801:5818   */\n      add\n        /* \"#utility.yul\":5788:5819   */\n      calldataload\n        /* \"#utility.yul\":5846:5864   */\n      0xffffffffffffffff\n        /* \"#utility.yul\":5838:5844   */\n      dup2\n        /* \"#utility.yul\":5835:5865   */\n      gt\n        /* \"#utility.yul\":5832:5949   */\n      iszero\n      tag_200\n      jumpi\n        /* \"#utility.yul\":5868:5947   */\n      tag_201\n      tag_134\n      jump\t// in\n    tag_201:\n        /* \"#utility.yul\":5832:5949   */\n    tag_200:\n        /* \"#utility.yul\":5981:6061   */\n      tag_202\n        /* \"#utility.yul\":6053:6060   */\n      dup6\n        /* \"#utility.yul\":6044:6050   */\n      dup3\n        /* \"#utility.yul\":6033:6042   */\n      dup7\n        /* \"#utility.yul\":6029:6051   */\n      add\n        /* \"#utility.yul\":5981:6061   */\n      tag_138\n      jump\t// in\n    tag_202:\n        /* \"#utility.yul\":5963:6061   */\n      swap3\n      pop\n      swap3\n      pop\n        /* \"#utility.yul\":5759:6071   */\n      pop\n        /* \"#utility.yul\":5519:6078   */\n      swap3\n      pop\n      swap3\n      swap1\n      pop\n      jump\t// out\n        /* \"#utility.yul\":6084:6457   */\n    tag_24:\n        /* \"#utility.yul\":6227:6231   */\n      0x00\n        /* \"#utility.yul\":6265:6267   */\n      0x20\n        /* \"#utility.yul\":6254:6263   */\n      dup3\n        /* \"#utility.yul\":6250:6268   */\n      add\n        /* \"#utility.yul\":6242:6268   */\n      swap1\n      pop\n        /* \"#utility.yul\":6314:6323   */\n      dup2\n        /* \"#utility.yul\":6308:6312   */\n      dup2\n        /* \"#utility.yul\":6304:6324   */\n      sub\n        /* \"#utility.yul\":6300:6301   */\n      0x00\n        /* \"#utility.yul\":6289:6298   */\n      dup4\n        /* \"#utility.yul\":6285:6302   */\n      add\n        /* \"#utility.yul\":6278:6325   */\n      mstore\n        /* \"#utility.yul\":6342:6450   */\n      tag_204\n        /* \"#utility.yul\":6445:6449   */\n      dup2\n        /* \"#utility.yul\":6436:6442   */\n      dup5\n        /* \"#utility.yul\":6342:6450   */\n      tag_122\n      jump\t// in\n    tag_204:\n        /* \"#utility.yul\":6334:6450   */\n      swap1\n      pop\n        /* \"#utility.yul\":6084:6457   */\n      swap3\n      swap2\n      pop\n      pop\n      jump\t// out\n        /* \"#utility.yul\":6463:6585   */\n    tag_139:\n        /* \"#utility.yul\":6536:6560   */\n      tag_206\n        /* \"#utility.yul\":6554:6559   */\n      dup2\n        /* \"#utility.yul\":6536:6560   */\n      tag_118\n      jump\t// in\n    tag_206:\n        /* \"#utility.yul\":6529:6534   */\n      dup2\n        /* \"#utility.yul\":6526:6561   */\n      eq\n        /* \"#utility.yul\":6516:6579   */\n      tag_207\n      jumpi\n        /* \"#utility.yul\":6575:6576   */\n      0x00\n        /* \"#utility.yul\":6572:6573   */\n      dup1\n        /* \"#utility.yul\":6565:6577   */\n      revert\n        /* \"#utility.yul\":6516:6579   */\n    tag_207:\n        /* \"#utility.yul\":6463:6585   */\n      pop\n      jump\t// out\n        /* \"#utility.yul\":6591:6730   */\n    tag_140:\n        /* \"#utility.yul\":6637:6642   */\n      0x00\n        /* \"#utility.yul\":6675:6681   */\n      dup2\n        /* \"#utility.yul\":6662:6682   */\n      calldataload\n        /* \"#utility.yul\":6653:6682   */\n      swap1\n      pop\n        /* \"#utility.yul\":6691:6724   */\n      tag_209\n        /* \"#utility.yul\":6718:6723   */\n      dup2\n        /* \"#utility.yul\":6691:6724   */\n      tag_139\n      jump\t// in\n    tag_209:\n        /* \"#utility.yul\":6591:6730   */\n      swap3\n      swap2\n      pop\n      pop\n      jump\t// out\n        /* \"#utility.yul\":6736:7065   */\n    tag_27:\n        /* \"#utility.yul\":6795:6801   */\n      0x00\n        /* \"#utility.yul\":6844:6846   */\n      0x20\n        /* \"#utility.yul\":6832:6841   */\n      dup3\n        /* \"#utility.yul\":6823:6830   */\n      dup5\n        /* \"#utility.yul\":6819:6842   */\n      sub\n        /* \"#utility.yul\":6815:6847   */\n      slt\n        /* \"#utility.yul\":6812:6931   */\n      iszero\n      tag_211\n      jumpi\n        /* \"#utility.yul\":6850:6929   */\n      tag_212\n      tag_133\n      jump\t// in\n    tag_212:\n        /* \"#utility.yul\":6812:6931   */\n    tag_211:\n        /* \"#utility.yul\":6970:6971   */\n      0x00\n        /* \"#utility.yul\":6995:7048   */\n      tag_213\n        /* \"#utility.yul\":7040:7047   */\n      dup5\n        /* \"#utility.yul\":7031:7037   */\n      dup3\n        /* \"#utility.yul\":7020:7029   */\n      dup6\n        /* \"#utility.yul\":7016:7038   */\n      add\n        /* \"#utility.yul\":6995:7048   */\n      tag_140\n      jump\t// in\n    tag_213:\n        /* \"#utility.yul\":6985:7048   */\n      swap2\n      pop\n        /* \"#utility.yul\":6941:7058   */\n      pop\n        /* \"#utility.yul\":6736:7065   */\n      swap3\n      swap2\n      pop\n      pop\n      jump\t// out\n        /* \"#utility.yul\":7071:7251   */\n    tag_39:\n        /* \"#utility.yul\":7119:7196   */\n      0x4e487b7100000000000000000000000000000000000000000000000000000000\n        /* \"#utility.yul\":7116:7117   */\n      0x00\n        /* \"#utility.yul\":7109:7197   */\n      mstore\n        /* \"#utility.yul\":7216:7220   */\n      0x32\n        /* \"#utility.yul\":7213:7214   */\n      0x04\n        /* \"#utility.yul\":7206:7221   */\n      mstore\n        /* \"#utility.yul\":7240:7244   */\n      0x24\n        /* \"#utility.yul\":7237:7238   */\n      0x00\n        /* \"#utility.yul\":7230:7245   */\n      revert\n        /* \"#utility.yul\":7257:7437   */\n    tag_141:\n        /* \"#utility.yul\":7305:7382   */\n      0x4e487b7100000000000000000000000000000000000000000000000000000000\n        /* \"#utility.yul\":7302:7303   */\n      0x00\n        /* \"#utility.yul\":7295:7383   */\n      mstore\n        /* \"#utility.yul\":7402:7406   */\n      0x11\n        /* \"#utility.yul\":7399:7400   */\n      0x04\n        /* \"#utility.yul\":7392:7407   */\n      mstore\n        /* \"#utility.yul\":7426:7430   */\n      0x24\n        /* \"#utility.yul\":7423:7424   */\n      0x00\n        /* \"#utility.yul\":7416:7431   */\n      revert\n        /* \"#utility.yul\":7443:7676   */\n    tag_43:\n        /* \"#utility.yul\":7482:7485   */\n      0x00\n        /* \"#utility.yul\":7505:7529   */\n      tag_217\n        /* \"#utility.yul\":7523:7528   */\n      dup3\n        /* \"#utility.yul\":7505:7529   */\n      tag_118\n      jump\t// in\n    tag_217:\n        /* \"#utility.yul\":7496:7529   */\n      swap2\n      pop\n        /* \"#utility.yul\":7551:7617   */\n      0xffffffffffffffffffffffffffffffffffffffffffffffffffffffffffffffff\n        /* \"#utility.yul\":7544:7549   */\n      dup3\n        /* \"#utility.yul\":7541:7618   */\n      sub\n        /* \"#utility.yul\":7538:7641   */\n      tag_218\n      jumpi\n        /* \"#utility.yul\":7621:7639   */\n      tag_219\n      tag_141\n      jump\t// in\n    tag_219:\n        /* \"#utility.yul\":7538:7641   */\n    tag_218:\n        /* \"#utility.yul\":7668:7669   */\n      0x01\n        /* \"#utility.yul\":7661:7666   */\n      dup3\n        /* \"#utility.yul\":7657:7670   */\n      add\n        /* \"#utility.yul\":7650:7670   */\n      swap1\n      pop\n        /* \"#utility.yul\":7443:7676   */\n      swap2\n      swap1\n      pop\n      jump\t// out\n        /* \"#utility.yul\":7682:7862   */\n    tag_47:\n        /* \"#utility.yul\":7730:7807   */\n      0x4e487b7100000000000000000000000000000000000000000000000000000000\n        /* \"#utility.yul\":7727:7728   */\n      0x00\n        /* \"#utility.yul\":7720:7808   */\n      mstore\n        /* \"#utility.yul\":7827:7831   */\n      0x41\n        /* \"#utility.yul\":7824:7825   */\n      0x04\n        /* \"#utility.yul\":7817:7832   */\n      mstore\n        /* \"#utility.yul\":7851:7855   */\n      0x24\n        /* \"#utility.yul\":7848:7849   */\n      0x00\n        /* \"#utility.yul\":7841:7856   */\n      revert\n\n    auxdata: 0xa26469706673582212207fd96fa4a8381697430f77bad9220391695c35bc06a87626f013faaa3f785a5e64736f6c63430008110033\n}\n",
				"bytecode": {
					"linkReferences": {},
					"object": "6080604052604051806101400160405280600160ff168152602001600260ff168152602001600360ff168152602001600460ff168152602001600560ff168152602001600660ff168152602001600760ff168152602001600860ff168152602001600960ff168152602001600a60ff16815250600090600a610082929190610095565b5034801561008f57600080fd5b50610104565b8280548282559060005260206000209081019282156100d6579160200282015b828111156100d5578251829060ff169055916020019190600101906100b5565b5b5090506100e391906100e7565b5090565b5b808211156101005760008160009055506001016100e8565b5090565b610a82806101136000396000f3fe608060405234801561001057600080fd5b506004361061007d5760003560e01c806389f915f61161005b57806389f915f6146100c7578063a00b7acd146100e5578063ade82bfd14610101578063b1cebac51461010b5761007d565b806320aaf79a146100825780634f9377db146100a15780637f66b1b8146100bd575b600080fd5b61008a610115565b604051610098929190610809565b60405180910390f35b6100bb60048036038101906100b691906108af565b610346565b005b6100c56103b4565b005b6100cf6103c4565b6040516100dc91906108fc565b60405180910390f35b6100ff60048036038101906100fa919061094a565b610480565b005b61010961050f565b005b61011361051f565b005b6060806000805b6001805490508110156101755763386d89d06001828154811061014257610141610977565b5b9060005260206000200154111561016257818061015e906109d5565b9250505b808061016d906109d5565b91505061011c565b5060008167ffffffffffffffff81111561019257610191610a1d565b5b6040519080825280602002602001820160405280156101c05781602001602082028036833780820191505090505b50905060008267ffffffffffffffff8111156101df576101de610a1d565b5b60405190808252806020026020018201604052801561020d5781602001602082028036833780820191505090505b5090506000805b6001805490508110156103375763386d89d06001828154811061023a57610239610977565b5b90600052602060002001541115610324576001818154811061025f5761025e610977565b5b906000526020600020015484838151811061027d5761027c610977565b5b6020026020010181815250506002818154811061029d5761029c610977565b5b9060005260206000200160009054906101000a900473ffffffffffffffffffffffffffffffffffffffff168383815181106102db576102da610977565b5b602002602001019073ffffffffffffffffffffffffffffffffffffffff16908173ffffffffffffffffffffffffffffffffffffffff16815250508180610320906109d5565b9250505b808061032f906109d5565b915050610214565b50828295509550505050509091565b600082829050905060005b818110156103ae57600084848381811061036e5761036d610977565b5b90506020020135908060018154018082558091505060019003906000526020600020016000909190919091505580806103a6906109d5565b915050610351565b50505050565b600260006103c291906105a0565b565b60606000808054905067ffffffffffffffff8111156103e6576103e5610a1d565b5b6040519080825280602002602001820160405280156104145781602001602082028036833780820191505090505b50905060005b600080549050811015610478576000818154811061043b5761043a610977565b5b906000526020600020015482828151811061045957610458610977565b5b6020026020010181815250508080610470906109d5565b91505061041a565b508091505090565b60018190806001815401808255809150506001900390600052602060002001600090919091909150556002339080600181540180825580915050600190039060005260206000200160009091909190916101000a81548173ffffffffffffffffffffffffffffffffffffffff021916908373ffffffffffffffffffffffffffffffffffffffff16021790555050565b6001600061051d91906105c1565b565b604051806101400160405280600160ff168152602001600260ff168152602001600360ff168152602001600460ff168152602001600560ff168152602001600660ff168152602001600760ff168152602001600860ff168152602001600960ff168152602001600a60ff16815250600090600a61059d9291906105e2565b50565b50805460008255906000526020600020908101906105be9190610634565b50565b50805460008255906000526020600020908101906105df9190610634565b50565b828054828255906000526020600020908101928215610623579160200282015b82811115610622578251829060ff16905591602001919060010190610602565b5b5090506106309190610634565b5090565b5b8082111561064d576000816000905550600101610635565b5090565b600081519050919050565b600082825260208201905092915050565b6000819050602082019050919050565b6000819050919050565b6106908161067d565b82525050565b60006106a28383610687565b60208301905092915050565b6000602082019050919050565b60006106c682610651565b6106d0818561065c565b93506106db8361066d565b8060005b8381101561070c5781516106f38882610696565b97506106fe836106ae565b9250506001810190506106df565b5085935050505092915050565b600081519050919050565b600082825260208201905092915050565b6000819050602082019050919050565b600073ffffffffffffffffffffffffffffffffffffffff82169050919050565b600061077082610745565b9050919050565b61078081610765565b82525050565b60006107928383610777565b60208301905092915050565b6000602082019050919050565b60006107b682610719565b6107c08185610724565b93506107cb83610735565b8060005b838110156107fc5781516107e38882610786565b97506107ee8361079e565b9250506001810190506107cf565b5085935050505092915050565b6000604082019050818103600083015261082381856106bb565b9050818103602083015261083781846107ab565b90509392505050565b600080fd5b600080fd5b600080fd5b600080fd5b600080fd5b60008083601f84011261086f5761086e61084a565b5b8235905067ffffffffffffffff81111561088c5761088b61084f565b5b6020830191508360208202830111156108a8576108a7610854565b5b9250929050565b600080602083850312156108c6576108c5610840565b5b600083013567ffffffffffffffff8111156108e4576108e3610845565b5b6108f085828601610859565b92509250509250929050565b6000602082019050818103600083015261091681846106bb565b905092915050565b6109278161067d565b811461093257600080fd5b50565b6000813590506109448161091e565b92915050565b6000602082840312156109605761095f610840565b5b600061096e84828501610935565b91505092915050565b7f4e487b7100000000000000000000000000000000000000000000000000000000600052603260045260246000fd5b7f4e487b7100000000000000000000000000000000000000000000000000000000600052601160045260246000fd5b60006109e08261067d565b91507fffffffffffffffffffffffffffffffffffffffffffffffffffffffffffffffff8203610a1257610a116109a6565b5b600182019050919050565b7f4e487b7100000000000000000000000000000000000000000000000000000000600052604160045260246000fdfea26469706673582212207fd96fa4a8381697430f77bad9220391695c35bc06a87626f013faaa3f785a5e64736f6c63430008110033",
					"opcodes": "PUSH1 0x80 PUSH1 0x40 MSTORE PUSH1 0x40 MLOAD DUP1 PUSH2 0x140 ADD PUSH1 0x40 MSTORE DUP1 PUSH1 0x1 PUSH1 0xFF AND DUP2 MSTORE PUSH1 0x20 ADD PUSH1 0x2 PUSH1 0xFF AND DUP2 MSTORE PUSH1 0x20 ADD PUSH1 0x3 PUSH1 0xFF AND DUP2 MSTORE PUSH1 0x20 ADD PUSH1 0x4 PUSH1 0xFF AND DUP2 MSTORE PUSH1 0x20 ADD PUSH1 0x5 PUSH1 0xFF AND DUP2 MSTORE PUSH1 0x20 ADD PUSH1 0x6 PUSH1 0xFF AND DUP2 MSTORE PUSH1 0x20 ADD PUSH1 0x7 PUSH1 0xFF AND DUP2 MSTORE PUSH1 0x20 ADD PUSH1 0x8 PUSH1 0xFF AND DUP2 MSTORE PUSH1 0x20 ADD PUSH1 0x9 PUSH1 0xFF AND DUP2 MSTORE PUSH1 0x20 ADD PUSH1 0xA PUSH1 0xFF AND DUP2 MSTORE POP PUSH1 0x0 SWAP1 PUSH1 0xA PUSH2 0x82 SWAP3 SWAP2 SWAP1 PUSH2 0x95 JUMP JUMPDEST POP CALLVALUE DUP1 ISZERO PUSH2 0x8F JUMPI PUSH1 0x0 DUP1 REVERT JUMPDEST POP PUSH2 0x104 JUMP JUMPDEST DUP3 DUP1 SLOAD DUP3 DUP3 SSTORE SWAP1 PUSH1 0x0 MSTORE PUSH1 0x20 PUSH1 0x0 KECCAK256 SWAP1 DUP2 ADD SWAP3 DUP3 ISZERO PUSH2 0xD6 JUMPI SWAP2 PUSH1 0x20 MUL DUP3 ADD JUMPDEST DUP3 DUP2 GT ISZERO PUSH2 0xD5 JUMPI DUP3 MLOAD DUP3 SWAP1 PUSH1 0xFF AND SWAP1 SSTORE SWAP2 PUSH1 0x20 ADD SWAP2 SWAP1 PUSH1 0x1 ADD SWAP1 PUSH2 0xB5 JUMP JUMPDEST JUMPDEST POP SWAP1 POP PUSH2 0xE3 SWAP2 SWAP1 PUSH2 0xE7 JUMP JUMPDEST POP SWAP1 JUMP JUMPDEST JUMPDEST DUP1 DUP3 GT ISZERO PUSH2 0x100 JUMPI PUSH1 0x0 DUP2 PUSH1 0x0 SWAP1 SSTORE POP PUSH1 0x1 ADD PUSH2 0xE8 JUMP JUMPDEST POP SWAP1 JUMP JUMPDEST PUSH2 0xA82 DUP1 PUSH2 0x113 PUSH1 0x0 CODECOPY PUSH1 0x0 RETURN INVALID PUSH1 0x80 PUSH1 0x40 MSTORE CALLVALUE DUP1 ISZERO PUSH2 0x10 JUMPI PUSH1 0x0 DUP1 REVERT JUMPDEST POP PUSH1 0x4 CALLDATASIZE LT PUSH2 0x7D JUMPI PUSH1 0x0 CALLDATALOAD PUSH1 0xE0 SHR DUP1 PUSH4 0x89F915F6 GT PUSH2 0x5B JUMPI DUP1 PUSH4 0x89F915F6 EQ PUSH2 0xC7 JUMPI DUP1 PUSH4 0xA00B7ACD EQ PUSH2 0xE5 JUMPI DUP1 PUSH4 0xADE82BFD EQ PUSH2 0x101 JUMPI DUP1 PUSH4 0xB1CEBAC5 EQ PUSH2 0x10B JUMPI PUSH2 0x7D JUMP JUMPDEST DUP1 PUSH4 0x20AAF79A EQ PUSH2 0x82 JUMPI DUP1 PUSH4 0x4F9377DB EQ PUSH2 0xA1 JUMPI DUP1 PUSH4 0x7F66B1B8 EQ PUSH2 0xBD JUMPI JUMPDEST PUSH1 0x0 DUP1 REVERT JUMPDEST PUSH2 0x8A PUSH2 0x115 JUMP JUMPDEST PUSH1 0x40 MLOAD PUSH2 0x98 SWAP3 SWAP2 SWAP1 PUSH2 0x809 JUMP JUMPDEST PUSH1 0x40 MLOAD DUP1 SWAP2 SUB SWAP1 RETURN JUMPDEST PUSH2 0xBB PUSH1 0x4 DUP1 CALLDATASIZE SUB DUP2 ADD SWAP1 PUSH2 0xB6 SWAP2 SWAP1 PUSH2 0x8AF JUMP JUMPDEST PUSH2 0x346 JUMP JUMPDEST STOP JUMPDEST PUSH2 0xC5 PUSH2 0x3B4 JUMP JUMPDEST STOP JUMPDEST PUSH2 0xCF PUSH2 0x3C4 JUMP JUMPDEST PUSH1 0x40 MLOAD PUSH2 0xDC SWAP2 SWAP1 PUSH2 0x8FC JUMP JUMPDEST PUSH1 0x40 MLOAD DUP1 SWAP2 SUB SWAP1 RETURN JUMPDEST PUSH2 0xFF PUSH1 0x4 DUP1 CALLDATASIZE SUB DUP2 ADD SWAP1 PUSH2 0xFA SWAP2 SWAP1 PUSH2 0x94A JUMP JUMPDEST PUSH2 0x480 JUMP JUMPDEST STOP JUMPDEST PUSH2 0x109 PUSH2 0x50F JUMP JUMPDEST STOP JUMPDEST PUSH2 0x113 PUSH2 0x51F JUMP JUMPDEST STOP JUMPDEST PUSH1 0x60 DUP1 PUSH1 0x0 DUP1 JUMPDEST PUSH1 0x1 DUP1 SLOAD SWAP1 POP DUP2 LT ISZERO PUSH2 0x175 JUMPI PUSH4 0x386D89D0 PUSH1 0x1 DUP3 DUP2 SLOAD DUP2 LT PUSH2 0x142 JUMPI PUSH2 0x141 PUSH2 0x977 JUMP JUMPDEST JUMPDEST SWAP1 PUSH1 0x0 MSTORE PUSH1 0x20 PUSH1 0x0 KECCAK256 ADD SLOAD GT ISZERO PUSH2 0x162 JUMPI DUP2 DUP1 PUSH2 0x15E SWAP1 PUSH2 0x9D5 JUMP JUMPDEST SWAP3 POP POP JUMPDEST DUP1 DUP1 PUSH2 0x16D SWAP1 PUSH2 0x9D5 JUMP JUMPDEST SWAP2 POP POP PUSH2 0x11C JUMP JUMPDEST POP PUSH1 0x0 DUP2 PUSH8 0xFFFFFFFFFFFFFFFF DUP2 GT ISZERO PUSH2 0x192 JUMPI PUSH2 0x191 PUSH2 0xA1D JUMP JUMPDEST JUMPDEST PUSH1 0x40 MLOAD SWAP1 DUP1 DUP3 MSTORE DUP1 PUSH1 0x20 MUL PUSH1 0x20 ADD DUP3 ADD PUSH1 0x40 MSTORE DUP1 ISZERO PUSH2 0x1C0 JUMPI DUP2 PUSH1 0x20 ADD PUSH1 0x20 DUP3 MUL DUP1 CALLDATASIZE DUP4 CALLDATACOPY DUP1 DUP3 ADD SWAP2 POP POP SWAP1 POP JUMPDEST POP SWAP1 POP PUSH1 0x0 DUP3 PUSH8 0xFFFFFFFFFFFFFFFF DUP2 GT ISZERO PUSH2 0x1DF JUMPI PUSH2 0x1DE PUSH2 0xA1D JUMP JUMPDEST JUMPDEST PUSH1 0x40 MLOAD SWAP1 DUP1 DUP3 MSTORE DUP1 PUSH1 0x20 MUL PUSH1 0x20 ADD DUP3 ADD PUSH1 0x40 MSTORE DUP1 ISZERO PUSH2 0x20D JUMPI DUP2 PUSH1 0x20 ADD PUSH1 0x20 DUP3 MUL DUP1 CALLDATASIZE DUP4 CALLDATACOPY DUP1 DUP3 ADD SWAP2 POP POP SWAP1 POP JUMPDEST POP SWAP1 POP PUSH1 0x0 DUP1 JUMPDEST PUSH1 0x1 DUP1 SLOAD SWAP1 POP DUP2 LT ISZERO PUSH2 0x337 JUMPI PUSH4 0x386D89D0 PUSH1 0x1 DUP3 DUP2 SLOAD DUP2 LT PUSH2 0x23A JUMPI PUSH2 0x239 PUSH2 0x977 JUMP JUMPDEST JUMPDEST SWAP1 PUSH1 0x0 MSTORE PUSH1 0x20 PUSH1 0x0 KECCAK256 ADD SLOAD GT ISZERO PUSH2 0x324 JUMPI PUSH1 0x1 DUP2 DUP2 SLOAD DUP2 LT PUSH2 0x25F JUMPI PUSH2 0x25E PUSH2 0x977 JUMP JUMPDEST JUMPDEST SWAP1 PUSH1 0x0 MSTORE PUSH1 0x20 PUSH1 0x0 KECCAK256 ADD SLOAD DUP5 DUP4 DUP2 MLOAD DUP2 LT PUSH2 0x27D JUMPI PUSH2 0x27C PUSH2 0x977 JUMP JUMPDEST JUMPDEST PUSH1 0x20 MUL PUSH1 0x20 ADD ADD DUP2 DUP2 MSTORE POP POP PUSH1 0x2 DUP2 DUP2 SLOAD DUP2 LT PUSH2 0x29D JUMPI PUSH2 0x29C PUSH2 0x977 JUMP JUMPDEST JUMPDEST SWAP1 PUSH1 0x0 MSTORE PUSH1 0x20 PUSH1 0x0 KECCAK256 ADD PUSH1 0x0 SWAP1 SLOAD SWAP1 PUSH2 0x100 EXP SWAP1 DIV PUSH20 0xFFFFFFFFFFFFFFFFFFFFFFFFFFFFFFFFFFFFFFFF AND DUP4 DUP4 DUP2 MLOAD DUP2 LT PUSH2 0x2DB JUMPI PUSH2 0x2DA PUSH2 0x977 JUMP JUMPDEST JUMPDEST PUSH1 0x20 MUL PUSH1 0x20 ADD ADD SWAP1 PUSH20 0xFFFFFFFFFFFFFFFFFFFFFFFFFFFFFFFFFFFFFFFF AND SWAP1 DUP2 PUSH20 0xFFFFFFFFFFFFFFFFFFFFFFFFFFFFFFFFFFFFFFFF AND DUP2 MSTORE POP POP DUP2 DUP1 PUSH2 0x320 SWAP1 PUSH2 0x9D5 JUMP JUMPDEST SWAP3 POP POP JUMPDEST DUP1 DUP1 PUSH2 0x32F SWAP1 PUSH2 0x9D5 JUMP JUMPDEST SWAP2 POP POP PUSH2 0x214 JUMP JUMPDEST POP DUP3 DUP3 SWAP6 POP SWAP6 POP POP POP POP POP SWAP1 SWAP2 JUMP JUMPDEST PUSH1 0x0 DUP3 DUP3 SWAP1 POP SWAP1 POP PUSH1 0x0 JUMPDEST DUP2 DUP2 LT ISZERO PUSH2 0x3AE JUMPI PUSH1 0x0 DUP5 DUP5 DUP4 DUP2 DUP2 LT PUSH2 0x36E JUMPI PUSH2 0x36D PUSH2 0x977 JUMP JUMPDEST JUMPDEST SWAP1 POP PUSH1 0x20 MUL ADD CALLDATALOAD SWAP1 DUP1 PUSH1 0x1 DUP2 SLOAD ADD DUP1 DUP3 SSTORE DUP1 SWAP2 POP POP PUSH1 0x1 SWAP1 SUB SWAP1 PUSH1 0x0 MSTORE PUSH1 0x20 PUSH1 0x0 KECCAK256 ADD PUSH1 0x0 SWAP1 SWAP2 SWAP1 SWAP2 SWAP1 SWAP2 POP SSTORE DUP1 DUP1 PUSH2 0x3A6 SWAP1 PUSH2 0x9D5 JUMP JUMPDEST SWAP2 POP POP PUSH2 0x351 JUMP JUMPDEST POP POP POP POP JUMP JUMPDEST PUSH1 0x2 PUSH1 0x0 PUSH2 0x3C2 SWAP2 SWAP1 PUSH2 0x5A0 JUMP JUMPDEST JUMP JUMPDEST PUSH1 0x60 PUSH1 0x0 DUP1 DUP1 SLOAD SWAP1 POP PUSH8 0xFFFFFFFFFFFFFFFF DUP2 GT ISZERO PUSH2 0x3E6 JUMPI PUSH2 0x3E5 PUSH2 0xA1D JUMP JUMPDEST JUMPDEST PUSH1 0x40 MLOAD SWAP1 DUP1 DUP3 MSTORE DUP1 PUSH1 0x20 MUL PUSH1 0x20 ADD DUP3 ADD PUSH1 0x40 MSTORE DUP1 ISZERO PUSH2 0x414 JUMPI DUP2 PUSH1 0x20 ADD PUSH1 0x20 DUP3 MUL DUP1 CALLDATASIZE DUP4 CALLDATACOPY DUP1 DUP3 ADD SWAP2 POP POP SWAP1 POP JUMPDEST POP SWAP1 POP PUSH1 0x0 JUMPDEST PUSH1 0x0 DUP1 SLOAD SWAP1 POP DUP2 LT ISZERO PUSH2 0x478 JUMPI PUSH1 0x0 DUP2 DUP2 SLOAD DUP2 LT PUSH2 0x43B JUMPI PUSH2 0x43A PUSH2 0x977 JUMP JUMPDEST JUMPDEST SWAP1 PUSH1 0x0 MSTORE PUSH1 0x20 PUSH1 0x0 KECCAK256 ADD SLOAD DUP3 DUP3 DUP2 MLOAD DUP2 LT PUSH2 0x459 JUMPI PUSH2 0x458 PUSH2 0x977 JUMP JUMPDEST JUMPDEST PUSH1 0x20 MUL PUSH1 0x20 ADD ADD DUP2 DUP2 MSTORE POP POP DUP1 DUP1 PUSH2 0x470 SWAP1 PUSH2 0x9D5 JUMP JUMPDEST SWAP2 POP POP PUSH2 0x41A JUMP JUMPDEST POP DUP1 SWAP2 POP POP SWAP1 JUMP JUMPDEST PUSH1 0x1 DUP2 SWAP1 DUP1 PUSH1 0x1 DUP2 SLOAD ADD DUP1 DUP3 SSTORE DUP1 SWAP2 POP POP PUSH1 0x1 SWAP1 SUB SWAP1 PUSH1 0x0 MSTORE PUSH1 0x20 PUSH1 0x0 KECCAK256 ADD PUSH1 0x0 SWAP1 SWAP2 SWAP1 SWAP2 SWAP1 SWAP2 POP SSTORE PUSH1 0x2 CALLER SWAP1 DUP1 PUSH1 0x1 DUP2 SLOAD ADD DUP1 DUP3 SSTORE DUP1 SWAP2 POP POP PUSH1 0x1 SWAP1 SUB SWAP1 PUSH1 0x0 MSTORE PUSH1 0x20 PUSH1 0x0 KECCAK256 ADD PUSH1 0x0 SWAP1 SWAP2 SWAP1 SWAP2 SWAP1 SWAP2 PUSH2 0x100 EXP DUP2 SLOAD DUP2 PUSH20 0xFFFFFFFFFFFFFFFFFFFFFFFFFFFFFFFFFFFFFFFF MUL NOT AND SWAP1 DUP4 PUSH20 0xFFFFFFFFFFFFFFFFFFFFFFFFFFFFFFFFFFFFFFFF AND MUL OR SWAP1 SSTORE POP POP JUMP JUMPDEST PUSH1 0x1 PUSH1 0x0 PUSH2 0x51D SWAP2 SWAP1 PUSH2 0x5C1 JUMP JUMPDEST JUMP JUMPDEST PUSH1 0x40 MLOAD DUP1 PUSH2 0x140 ADD PUSH1 0x40 MSTORE DUP1 PUSH1 0x1 PUSH1 0xFF AND DUP2 MSTORE PUSH1 0x20 ADD PUSH1 0x2 PUSH1 0xFF AND DUP2 MSTORE PUSH1 0x20 ADD PUSH1 0x3 PUSH1 0xFF AND DUP2 MSTORE PUSH1 0x20 ADD PUSH1 0x4 PUSH1 0xFF AND DUP2 MSTORE PUSH1 0x20 ADD PUSH1 0x5 PUSH1 0xFF AND DUP2 MSTORE PUSH1 0x20 ADD PUSH1 0x6 PUSH1 0xFF AND DUP2 MSTORE PUSH1 0x20 ADD PUSH1 0x7 PUSH1 0xFF AND DUP2 MSTORE PUSH1 0x20 ADD PUSH1 0x8 PUSH1 0xFF AND DUP2 MSTORE PUSH1 0x20 ADD PUSH1 0x9 PUSH1 0xFF AND DUP2 MSTORE PUSH1 0x20 ADD PUSH1 0xA PUSH1 0xFF AND DUP2 MSTORE POP PUSH1 0x0 SWAP1 PUSH1 0xA PUSH2 0x59D SWAP3 SWAP2 SWAP1 PUSH2 0x5E2 JUMP JUMPDEST POP JUMP JUMPDEST POP DUP1 SLOAD PUSH1 0x0 DUP3 SSTORE SWAP1 PUSH1 0x0 MSTORE PUSH1 0x20 PUSH1 0x0 KECCAK256 SWAP1 DUP2 ADD SWAP1 PUSH2 0x5BE SWAP2 SWAP1 PUSH2 0x634 JUMP JUMPDEST POP JUMP JUMPDEST POP DUP1 SLOAD PUSH1 0x0 DUP3 SSTORE SWAP1 PUSH1 0x0 MSTORE PUSH1 0x20 PUSH1 0x0 KECCAK256 SWAP1 DUP2 ADD SWAP1 PUSH2 0x5DF SWAP2 SWAP1 PUSH2 0x634 JUMP JUMPDEST POP JUMP JUMPDEST DUP3 DUP1 SLOAD DUP3 DUP3 SSTORE SWAP1 PUSH1 0x0 MSTORE PUSH1 0x20 PUSH1 0x0 KECCAK256 SWAP1 DUP2 ADD SWAP3 DUP3 ISZERO PUSH2 0x623 JUMPI SWAP2 PUSH1 0x20 MUL DUP3 ADD JUMPDEST DUP3 DUP2 GT ISZERO PUSH2 0x622 JUMPI DUP3 MLOAD DUP3 SWAP1 PUSH1 0xFF AND SWAP1 SSTORE SWAP2 PUSH1 0x20 ADD SWAP2 SWAP1 PUSH1 0x1 ADD SWAP1 PUSH2 0x602 JUMP JUMPDEST JUMPDEST POP SWAP1 POP PUSH2 0x630 SWAP2 SWAP1 PUSH2 0x634 JUMP JUMPDEST POP SWAP1 JUMP JUMPDEST JUMPDEST DUP1 DUP3 GT ISZERO PUSH2 0x64D JUMPI PUSH1 0x0 DUP2 PUSH1 0x0 SWAP1 SSTORE POP PUSH1 0x1 ADD PUSH2 0x635 JUMP JUMPDEST POP SWAP1 JUMP JUMPDEST PUSH1 0x0 DUP2 MLOAD SWAP1 POP SWAP2 SWAP1 POP JUMP JUMPDEST PUSH1 0x0 DUP3 DUP3 MSTORE PUSH1 0x20 DUP3 ADD SWAP1 POP SWAP3 SWAP2 POP POP JUMP JUMPDEST PUSH1 0x0 DUP2 SWAP1 POP PUSH1 0x20 DUP3 ADD SWAP1 POP SWAP2 SWAP1 POP JUMP JUMPDEST PUSH1 0x0 DUP2 SWAP1 POP SWAP2 SWAP1 POP JUMP JUMPDEST PUSH2 0x690 DUP2 PUSH2 0x67D JUMP JUMPDEST DUP3 MSTORE POP POP JUMP JUMPDEST PUSH1 0x0 PUSH2 0x6A2 DUP4 DUP4 PUSH2 0x687 JUMP JUMPDEST PUSH1 0x20 DUP4 ADD SWAP1 POP SWAP3 SWAP2 POP POP JUMP JUMPDEST PUSH1 0x0 PUSH1 0x20 DUP3 ADD SWAP1 POP SWAP2 SWAP1 POP JUMP JUMPDEST PUSH1 0x0 PUSH2 0x6C6 DUP3 PUSH2 0x651 JUMP JUMPDEST PUSH2 0x6D0 DUP2 DUP6 PUSH2 0x65C JUMP JUMPDEST SWAP4 POP PUSH2 0x6DB DUP4 PUSH2 0x66D JUMP JUMPDEST DUP1 PUSH1 0x0 JUMPDEST DUP4 DUP2 LT ISZERO PUSH2 0x70C JUMPI DUP2 MLOAD PUSH2 0x6F3 DUP9 DUP3 PUSH2 0x696 JUMP JUMPDEST SWAP8 POP PUSH2 0x6FE DUP4 PUSH2 0x6AE JUMP JUMPDEST SWAP3 POP POP PUSH1 0x1 DUP2 ADD SWAP1 POP PUSH2 0x6DF JUMP JUMPDEST POP DUP6 SWAP4 POP POP POP POP SWAP3 SWAP2 POP POP JUMP JUMPDEST PUSH1 0x0 DUP2 MLOAD SWAP1 POP SWAP2 SWAP1 POP JUMP JUMPDEST PUSH1 0x0 DUP3 DUP3 MSTORE PUSH1 0x20 DUP3 ADD SWAP1 POP SWAP3 SWAP2 POP POP JUMP JUMPDEST PUSH1 0x0 DUP2 SWAP1 POP PUSH1 0x20 DUP3 ADD SWAP1 POP SWAP2 SWAP1 POP JUMP JUMPDEST PUSH1 0x0 PUSH20 0xFFFFFFFFFFFFFFFFFFFFFFFFFFFFFFFFFFFFFFFF DUP3 AND SWAP1 POP SWAP2 SWAP1 POP JUMP JUMPDEST PUSH1 0x0 PUSH2 0x770 DUP3 PUSH2 0x745 JUMP JUMPDEST SWAP1 POP SWAP2 SWAP1 POP JUMP JUMPDEST PUSH2 0x780 DUP2 PUSH2 0x765 JUMP JUMPDEST DUP3 MSTORE POP POP JUMP JUMPDEST PUSH1 0x0 PUSH2 0x792 DUP4 DUP4 PUSH2 0x777 JUMP JUMPDEST PUSH1 0x20 DUP4 ADD SWAP1 POP SWAP3 SWAP2 POP POP JUMP JUMPDEST PUSH1 0x0 PUSH1 0x20 DUP3 ADD SWAP1 POP SWAP2 SWAP1 POP JUMP JUMPDEST PUSH1 0x0 PUSH2 0x7B6 DUP3 PUSH2 0x719 JUMP JUMPDEST PUSH2 0x7C0 DUP2 DUP6 PUSH2 0x724 JUMP JUMPDEST SWAP4 POP PUSH2 0x7CB DUP4 PUSH2 0x735 JUMP JUMPDEST DUP1 PUSH1 0x0 JUMPDEST DUP4 DUP2 LT ISZERO PUSH2 0x7FC JUMPI DUP2 MLOAD PUSH2 0x7E3 DUP9 DUP3 PUSH2 0x786 JUMP JUMPDEST SWAP8 POP PUSH2 0x7EE DUP4 PUSH2 0x79E JUMP JUMPDEST SWAP3 POP POP PUSH1 0x1 DUP2 ADD SWAP1 POP PUSH2 0x7CF JUMP JUMPDEST POP DUP6 SWAP4 POP POP POP POP SWAP3 SWAP2 POP POP JUMP JUMPDEST PUSH1 0x0 PUSH1 0x40 DUP3 ADD SWAP1 POP DUP2 DUP2 SUB PUSH1 0x0 DUP4 ADD MSTORE PUSH2 0x823 DUP2 DUP6 PUSH2 0x6BB JUMP JUMPDEST SWAP1 POP DUP2 DUP2 SUB PUSH1 0x20 DUP4 ADD MSTORE PUSH2 0x837 DUP2 DUP5 PUSH2 0x7AB JUMP JUMPDEST SWAP1 POP SWAP4 SWAP3 POP POP POP JUMP JUMPDEST PUSH1 0x0 DUP1 REVERT JUMPDEST PUSH1 0x0 DUP1 REVERT JUMPDEST PUSH1 0x0 DUP1 REVERT JUMPDEST PUSH1 0x0 DUP1 REVERT JUMPDEST PUSH1 0x0 DUP1 REVERT JUMPDEST PUSH1 0x0 DUP1 DUP4 PUSH1 0x1F DUP5 ADD SLT PUSH2 0x86F JUMPI PUSH2 0x86E PUSH2 0x84A JUMP JUMPDEST JUMPDEST DUP3 CALLDATALOAD SWAP1 POP PUSH8 0xFFFFFFFFFFFFFFFF DUP2 GT ISZERO PUSH2 0x88C JUMPI PUSH2 0x88B PUSH2 0x84F JUMP JUMPDEST JUMPDEST PUSH1 0x20 DUP4 ADD SWAP2 POP DUP4 PUSH1 0x20 DUP3 MUL DUP4 ADD GT ISZERO PUSH2 0x8A8 JUMPI PUSH2 0x8A7 PUSH2 0x854 JUMP JUMPDEST JUMPDEST SWAP3 POP SWAP3 SWAP1 POP JUMP JUMPDEST PUSH1 0x0 DUP1 PUSH1 0x20 DUP4 DUP6 SUB SLT ISZERO PUSH2 0x8C6 JUMPI PUSH2 0x8C5 PUSH2 0x840 JUMP JUMPDEST JUMPDEST PUSH1 0x0 DUP4 ADD CALLDATALOAD PUSH8 0xFFFFFFFFFFFFFFFF DUP2 GT ISZERO PUSH2 0x8E4 JUMPI PUSH2 0x8E3 PUSH2 0x845 JUMP JUMPDEST JUMPDEST PUSH2 0x8F0 DUP6 DUP3 DUP7 ADD PUSH2 0x859 JUMP JUMPDEST SWAP3 POP SWAP3 POP POP SWAP3 POP SWAP3 SWAP1 POP JUMP JUMPDEST PUSH1 0x0 PUSH1 0x20 DUP3 ADD SWAP1 POP DUP2 DUP2 SUB PUSH1 0x0 DUP4 ADD MSTORE PUSH2 0x916 DUP2 DUP5 PUSH2 0x6BB JUMP JUMPDEST SWAP1 POP SWAP3 SWAP2 POP POP JUMP JUMPDEST PUSH2 0x927 DUP2 PUSH2 0x67D JUMP JUMPDEST DUP2 EQ PUSH2 0x932 JUMPI PUSH1 0x0 DUP1 REVERT JUMPDEST POP JUMP JUMPDEST PUSH1 0x0 DUP2 CALLDATALOAD SWAP1 POP PUSH2 0x944 DUP2 PUSH2 0x91E JUMP JUMPDEST SWAP3 SWAP2 POP POP JUMP JUMPDEST PUSH1 0x0 PUSH1 0x20 DUP3 DUP5 SUB SLT ISZERO PUSH2 0x960 JUMPI PUSH2 0x95F PUSH2 0x840 JUMP JUMPDEST JUMPDEST PUSH1 0x0 PUSH2 0x96E DUP5 DUP3 DUP6 ADD PUSH2 0x935 JUMP JUMPDEST SWAP2 POP POP SWAP3 SWAP2 POP POP JUMP JUMPDEST PUSH32 0x4E487B7100000000000000000000000000000000000000000000000000000000 PUSH1 0x0 MSTORE PUSH1 0x32 PUSH1 0x4 MSTORE PUSH1 0x24 PUSH1 0x0 REVERT JUMPDEST PUSH32 0x4E487B7100000000000000000000000000000000000000000000000000000000 PUSH1 0x0 MSTORE PUSH1 0x11 PUSH1 0x4 MSTORE PUSH1 0x24 PUSH1 0x0 REVERT JUMPDEST PUSH1 0x0 PUSH2 0x9E0 DUP3 PUSH2 0x67D JUMP JUMPDEST SWAP2 POP PUSH32 0xFFFFFFFFFFFFFFFFFFFFFFFFFFFFFFFFFFFFFFFFFFFFFFFFFFFFFFFFFFFFFFFF DUP3 SUB PUSH2 0xA12 JUMPI PUSH2 0xA11 PUSH2 0x9A6 JUMP JUMPDEST JUMPDEST PUSH1 0x1 DUP3 ADD SWAP1 POP SWAP2 SWAP1 POP JUMP JUMPDEST PUSH32 0x4E487B7100000000000000000000000000000000000000000000000000000000 PUSH1 0x0 MSTORE PUSH1 0x41 PUSH1 0x4 MSTORE PUSH1 0x24 PUSH1 0x0 REVERT INVALID LOG2 PUSH5 0x6970667358 0x22 SLT KECCAK256 PUSH32 0xD96FA4A8381697430F77BAD9220391695C35BC06A87626F013FAAA3F785A5E64 PUSH20 0x6F6C634300081100330000000000000000000000 "
				},
				"gasEstimates": {
					"creation": {
						"codeDepositCost": "538000",
						"executionCost": "infinite",
						"totalCost": "infinite"
					},
					"external": {
						"afterY2K()": "infinite",
						"appendToNumbers(uint256[])": "infinite",
						"getNumbers()": "infinite",
						"resetNumbers()": "infinite",
						"resetSenders()": "infinite",
						"resetTimestamps()": "infinite",
						"saveTimestamp(uint256)": "95429"
					}
				},
				"methodIdentifiers": {
					"afterY2K()": "20aaf79a",
					"appendToNumbers(uint256[])": "4f9377db",
					"getNumbers()": "89f915f6",
					"resetNumbers()": "b1cebac5",
					"resetSenders()": "7f66b1b8",
					"resetTimestamps()": "ade82bfd",
					"saveTimestamp(uint256)": "a00b7acd"
				}
			},
			"storageLayout": {
				"storage": [
					{
						"astId": 15,
						"contract": "contracts/array.sol:ArraysExercise",
						"label": "numbers",
						"offset": 0,
						"slot": "0",
						"type": "t_array(t_uint256)dyn_storage"
					},
					{
						"astId": 18,
						"contract": "contracts/array.sol:ArraysExercise",
						"label": "timestamps",
						"offset": 0,
						"slot": "1",
						"type": "t_array(t_uint256)dyn_storage"
					},
					{
						"astId": 21,
						"contract": "contracts/array.sol:ArraysExercise",
						"label": "senders",
						"offset": 0,
						"slot": "2",
						"type": "t_array(t_address)dyn_storage"
					}
				],
				"types": {
					"t_address": {
						"encoding": "inplace",
						"label": "address",
						"numberOfBytes": "20"
					},
					"t_array(t_address)dyn_storage": {
						"base": "t_address",
						"encoding": "dynamic_array",
						"label": "address[]",
						"numberOfBytes": "32"
					},
					"t_array(t_uint256)dyn_storage": {
						"base": "t_uint256",
						"encoding": "dynamic_array",
						"label": "uint256[]",
						"numberOfBytes": "32"
					},
					"t_uint256": {
						"encoding": "inplace",
						"label": "uint256",
						"numberOfBytes": "32"
					}
				}
			},
			"userdoc": {
				"kind": "user",
				"methods": {},
				"version": 1
			}
		}
	}
}